:10000000ADC3C7C3C6C3C5C3C4C3C3C3C2C3C1C3CF
:10001000C0C3BFC3BEC3BDC3BCC3BBC3BAC300035D
:100020000C0F30333C3FC0C3CCCFF0F3FCFFAED558
:10003000F0A83FD300408D142000A1C8DA12813F00
:10004000D922DB20A4A62EAF454E54455200594F6D
:100050005552004E414D455E5F600000313000005A
:10006000000000000000003C3D3E00003230000077
:10007000000000000000005B5C5D00003430000008
:1000800000000000000000613A3B00003F3F4E4589
:100090005700484953434F5245405B5C5D3C3D3EF1
:1000A0005B5C5D5E5F60613A3B0000000047414D74
:1000B00045004F564552003C3D3E5E5F6000315565
:1000C0005000000000000000000000613A3B5B5C53
:1000D0005D5E5F603C3D3E5B5C5D000000000000DB
:1000E00002020202020204040404040404040404DC
:1000F00004040404040404040402000002040402CE
:1001000000000204040404040404FF00000000FFD3
:10011000020202020202040404040404FF040404B0
:1001200004FF00FF0000FF0002FF0202FF0204FFC5
:100130000404FF0404FF0404FF04FFFF0202FFFFA6
:1001400000020202020002040202040202FFFFFF98
:10015000FF0204040404040402020202020200007A
:1001600000000000000000000000FF00000000FF91
:1001700002FFFFFFFF0204FFFFFFFF04FF04040470
:1001800004FF04FF04FF04FFFF04FF04FF0404FF57
:1001900004FF04FFFF04FF04FF04FFFF0000FFFF54
:1001A000020204040202020204040202FFFF000031
:1001B000FFFF000004040202000004040202000029
:1001C000040402020000040402023C221E00003E5D
:1001D00000003A2A2E00222A3E000E083C002E2A59
:1001E0003A003E28380002320E003E2A3E000E0A37
:1001F0003E001E16161E143C181070187DB6BC3C2E
:100200003CBCB67D1870022A0E00002E00003C0A8D
:100210003C003E2A14001C2222003E221C003E2AE2
:1002200022003E0A02001C2232003E083E00003E30
:10023000000030201E003E0836003E2020003E0C0C
:100240003E003E1C3E001C221C003E0A04001C22F4
:100250003C003E0A3400242A1200023E02003E20E6
:100260003E001E301E003E183E00360836000E3896
:100270000E00322A2600000058BC163F3F16BC581C
:1002800000009C9E5E76375F5F37765E9E9C1018FE
:100290003C14F00F00000058BC163F3F16BC58003D
:1002A0000000000000985CB65F5FB65C980000003C
:1002B0000070187DB6BC3C3CBCB67D187000001EBA
:1002C000B87D363C3C3C3C367DB81E00009C9E5EB2
:1002D00076375F5F37765E9E9C00001C5EFEB63709
:1002E0005F5F37B6FE5E1C00004060F050785858E3
:1002F0007850F0604000004060D0705878785870B6
:10030000D060400000000000002418182400000005
:100310000000000000810024181824008100000063
:100320000000248118245A5A241881240000420015
:1003300024814A3CA4253C4A812400427078787884
:10034000787E7F7E787878787054D1B4783CF034B9
:10035000F88078EAE07480C080000080C0800000EF
:1003600080C08000004C4556454C315550A002805D
:10037000C043E04AF001E042C001E049F042E04CF5
:10038000F042E049F001E042C001E045F042E00205
:10039000C0809E9C03789C1E4C1F013FC7451FDCFC
:1003A000463FC7423F053E3C38B060989D0301027E
:1003B00006430401FC8544FCC3037F1FFF4504C7BB
:1003C0004507010F4607420F021F7FC601FC840D3F
:1003D00001FF7F3F1F07804020180E030199A303F0
:1003E000037C808302037FC3021F03820207F88419
:1003F0000107C2010FC2017F8404807E077FC30111
:100400007E830180C7017E8405C030180603A006E4
:1004100000C0E0F0F8FC47FE01FC46FE03FCF0EEF5
:100420004AFE01FC42F802FEFF45C0C201E142C0A3
:1004300043F801FF45C0C201F0C245C001FF43F8C7
:10044000C344C002FFF8C203DFC7C143C003F8F6CC
:10045000E148F846FE03FCF0E042F001F842FC48B7
:10046000FE01F842E001C08309070F79E1C10103F1
:100470000F3FC207F9C383070F1F7FC202F38343F5
:1004800003013FC202FBC3420303070F7FC301E125
:1004900044010103C544034401010FC5450344F36E
:1004A00042030107420FC44403018347F3C3021F01
:1004B000034201018142F142F34403018FC3027FF1
:1004C0001F420F0587E3F3F13143010281E7417ECB
:1004D000841003071C38E08003071F7FFEF0E080D4
:1004E0000001420702CE808302073FC20AFCF0C02F
:1004F00000030F3FFFF88083013FC48403FEFCE04C
:10050000820103C584C3010F8401F8C2010F840175
:10051000C045CFC3033F07018207809E9F1F0F6125
:10052000E042F001FCC202EF83438007981E1F1EC9
:100530001FF6E64306020701810670807000800006
:1005400042A81FF9030F1C70E081838FBFFEF8E003
:1005500080818F9FFEDC30E0C0839FFFCF1F7CE057
:10056000C08142834480C2020FFF448001F34213E2
:1005700001F04380019FC3438001BC43BF4280031D
:10058000C0E07FC20187448001BE44BFC3029F8395
:10059000428002F0FEC2088F8180E0F03EFFDF4320
:1005A000870197429F09DFC7E160381C0E0301866F
:1005B000C201FDD101FDCC0C3F5F1FCF2FC7BFE7AC
:1005C0007FEFFFBFCF01FBCE01F7CF017FCD017FD2
:1005D000D001F7C5CE01FECA01FDC611C014E9F66F
:1005E000BDEFFDFFFDFFBFFFD77FDFBFF6D0017F6F
:1005F000E201BFCC01DFC801BFC5CC01EFD50AFEC7
:10060000FFFDF7FFF7FFF7FFFDC201FDDB1CBF7F1A
:100610001FBF0F478F23479343B54BA3DBA5DBB326
:10062000E75BF7AFF76FFFDFFF5FCA01BFCFD50111
:10063000DFCC01EFD501BFCB2A9F0F431502500439
:10064000A218E20CF20CF3ACDAF5BAED7AEFDABFED
:10065000F6FFEFFDF77FFFEDFF7FFBBFFEDF7DF7CE
:10066000DFFFBFC301BFCE02FFFED101BFC401AF98
:10067000C401BFE42411240852005528C31CD1B67C
:100680004DFA57FDD76EFBEE77DFF5DFFBFDBFFAC6
:10069000FFFDFFFD7FFEBFFFDFC301BFC302FEAB57
:1006A000CA01FDC6CE01FEC20FF7FFF7FFB6D5F7B0
:1006B00080F7D5B6FFF7FFF7E119F648A11449A670
:1006C00059A5BA6BDE75FFDB7FEDFFF7FFFD7FFFFE
:1006D000FDFFFEC411DFFBFFBFF7DFFBBF6DDFFFD8
:1006E000B77FFF57BED5C6017FC801BFC1C701FD97
:1006F000CB01FEC402FAEFC301FED301FDD110FE0F
:10070000E9D46B9679D7BDD7FDEFBDF7DFFFEEC417
:1007100001EFC312FBEEFF77FDFFDFF6EF7DEBFF8E
:1007200056BDCBF5F6FDD3C601EFCF01FBDA017F55
:10073000CA01EFCB1FFDFEFFFAF7FDEFF7DEEFFF7B
:10074000BFEEFFDFBFFFDFFEBFFFAFFFDFFBFFF648
:10075000FFFBFFFCC701FEC601FBCA0011241FBE40
:10076000CFE5D2E0DEBFCDBF10E0A0E6B0E0E8EE1E
:10077000FFE102C005900D92A237B107D9F721E041
:10078000A2E7B0E001C01D92A438B207E1F7C8D5D6
:1007900029CC36CCE9E4F1E080E091919F3F19F05B
:1007A00096300CF48F5F91E0E136F907B1F7809352
:1007B0007D0186958695869580937B0108951F938C
:1007C000CF93DF939DEE960F6C57E5E4F1E0C0E820
:1007D000D0E041E050E0455451409830F0F49E01A3
:1007E000092E02C0359527950A94E2F7DF01A5543A
:1007F000B14072A1172F122381F0AB5BBE4F209541
:10080000272392962C93811103C08FEF80936E0162
:1008100081E0DF91CF911F91089528EF290F2830B3
:1008200070F4DE0102C0B595A7952A95E2F79D0107
:10083000DA01AE0FBF1F73A1172F1223F1F69352E7
:1008400032969613CACF80E0E4CF8F7787B987B10D
:1008500087B9369A3699FECF84B195B1089590E064
:10086000A62FB0E0B595A79574E0AA0FBB1F7A95A7
:10087000E1F79C01E3E035952795EA95E1F7AF575D
:10088000BF4FA20FB31F2C91222319F1E22FEF7754
:10089000E053FF0BEE0FFF1FEE0FFF1F959587959F
:1008A00083709927E80FF91FE653FE4FE49160FD2E
:1008B00009C0EF70F0E0E25EFF4F849127FF0AC0AD
:1008C00080950895F0E084E0F595E7958A95E1F745
:1008D000F2CF80E0089520E630E0F9012E5F3F4F2F
:1008E0004081518184179507C0F3009711F4E8E621
:1008F000F0E0DB014191519120E38417950720F04E
:100900002F5F841B950BF9CF2D9320813181232BF1
:1009100089F708952091780030917900820F931F14
:100920009093790080937800089580E891E008958D
:10093000EEE7F1E080E09191890F91E0E438F9076A
:10094000D0F3089580917E0190917F010895909356
:100950007F0180937E010895F5DF2091780030912A
:1009600079008217930720F4C901F1DF81E008952F
:1009700080E0089580917800909179000895FF9229
:100980000F931F93CF93DF9310928301D1DF9AE2ED
:10099000981B909383010EE711E0C0E8D0E0F801C6
:1009A000F1908F01CE0139D9F81619F06F2DCE01D3
:1009B0003CD92196F1E004381F0788F3DF91CF91ED
:1009C0001F910F91FF9008950F931F93CF93DF9383
:1009D000CEE7D1E000E810E0C8011FD989930F5F8E
:1009E0001F4F81E0C438D807B8F3DF91CF911F9132
:1009F0000F910895E9DF9CDF8A3271F010927F0138
:100A000010927E0143E050E06FE370E080E891E0F7
:100A1000E2DA10928301B3CF08954EE150E06FEF18
:100A200070E089E491E0D7DAE7E6F1E086E0DF0103
:100A30001D928A95E9F7E5E4F1E088E880838FEF7D
:100A400081A780E18283838388E380938000089577
:100A5000E1E8F0E080E4DF011D928A95E9F708956E
:100A6000C098C29AB29BFECF85E08A95F1F700004C
:100A7000C09A8AE08A95F1F700C008958EB98BE29A
:100A80009AE09A95F1F700C08DB9B29BFECF95E040
:100A90009A95F1F700008DB9769BF2CF8AE08A959E
:100AA000F1F700C08FB19FEF9FB9B89A0895C2982F
:100AB0008FB980EFE3DFB8988EEFE0DF809581702B
:100AC0000895C29AB29BFECF85E08A95F1F70000A7
:100AD000C09885E08A95F1F70000C298C09A779B8C
:100AE0000BC0C29888E78FB980EFC8DFB8988EEF47
:100AF000C5DF80958170089580E00895B1DFE1DF62
:100B000080E4D5CFADDFDDDF80E0D1CFCF93C82F3C
:100B1000F9DF8C2FCCDFCF91A3CF815028F095E067
:100B20009A95F1F70000F9CF08950F931F93CF9393
:100B3000DF93182F062FC0E0D82FD0951111C49A3B
:100B40008D2FEBDFC4988D2FE8DFCF5F0C13F6CF2E
:100B5000DF91CF911F910F9108956DE784E6E5DF56
:100B60006DE782E3E2CF86B38695817090E00895C9
:100B700050E090E08F579F4F47C82F923F924F927F
:100B80005F926F927F928F929F92AF92BF92CF921D
:100B9000DF92EF92FF920F931F93CF93DF93C82EB4
:100BA000E0EB4E2EE5E05E2E882321F07DE6472E19
:100BB00073E0572ED1DE90914401892B809344013C
:100BC000C1102BC045DF43E06AE673E080E0D0DF70
:100BD000ACDEFC0193E0A7E9B0E001900D929A959C
:100BE000E1F780914401882329F043E06AE673E04D
:100BF00086E1BEDFBFDE65E870E06DDEA3DE6BE997
:100C000070E069DE45E065E673E084E2B1DF809183
:100C100043016BEA70E090E05EDE809180006EE060
:100C2000A7D9282F80917F00882361F090917E00C2
:100C30009C5F9F7790937E00992311F0943411F478
:100C400010927F0080917E008C5C820F8F77809362
:100C50006D016CEF962E312C212CD0E040E863EC36
:100C600070E0C20142D32C0180EB8D0F4FDF80E09A
:100C70004DDF80E14BDF42DF10E000E0D02E003896
:100C8000110509F4E8C2C110D9C22091C200211196
:100C90004BC1D630E9F43DEE300FE0E0383008F0DB
:100CA00022C1F0E0EB5BFE4F42A180E890E0032E12
:100CB00002C0959587950A94E2F7842349F0313074
:100CC00009F434C108F428C1383008F025C12FE0F8
:100CD000E0916D01ED0DEF77F0E0ED53FF4F808077
:100CE000809480917D0090E065E070E030D90197BC
:100CF000A801481B590BCA01181619060CF418C193
:100D0000D73009F015C1F801EA5AFC4F6490282940
:100D100080918000F801E81BF109ED30F10508F041
:100D200012C1D73009F00FC180917C00811102C13E
:100D3000E45CFC4F8490622A80914501883809F474
:100D400004C1D11102C1082E000C990B0817190714
:100D50000CF4FBC0B8016E507109861797070CF4AC
:100D6000F4C0F801E81BF90B8091460190E06EE0B9
:100D700070E0EDD8E80FF91FE851FD4F4491682865
:100D800080907801E82C082C000CFF080E151F0538
:100D90000CF0DDC0C0E0642A80916F01D81248C217
:100DA00020916E01822F022E000C990B2816390615
:100DB00009F03EC227FD3CC29091700181E0911183
:100DC00080E080937001911103C0215020936E0147
:100DD0000E151F050CF4BAC197012C5A3F4F20176E
:100DE00031070CF4B3C1A0906E01AA0CBB0890E0CF
:100DF0000196A80EB91E9501220F331F220F331F33
:100E00006091790170E0CB0153E0880F991F5A95EA
:100E1000E1F7281739070CF499C1809682179307D8
:100E20000CF494C1660F771FA61AB70AB501B7FE76
:100E300002C06F5F7F4F75956795072E000C880B7A
:100E4000990BF0D75FEFA516B5060CF460C120E052
:100E500030E040E05FE34FD7B2D7A62EC8018E192D
:100E60009F097C016EE070E08FD8072E000C880B84
:100E7000990BD8D720E030E040E05FE3A3EFEA161B
:100E8000AFEFFA060CF449C136D799D7A7FC28C2B0
:100E900066300CF05BC1B3E0BA150CF457C10A2CF4
:100EA000000CBB0867FD60E0E62E660FFF08C50179
:100EB00066E070E04CD88B5B9E4FFC01EE0DFF1D91
:100EC0007480E5E0E71508F441C16AE082E32DDEB5
:100ED000F1E0F71508F423C18AE090E01BDD8AE019
:100EE00090E018DD20C148EF430F4830B8F4EF5FC1
:100EF000F0E0EB5BFE4F32A180E890E0042E02C0F0
:100F0000959587950A94E2F7832309F4E1CE46305C
:100F100069F0473009F0DBCE20EFDACE3352EE5FD6
:100F2000E63009F0BBCED4CE20E0D2CE2CEFD0CE2E
:100F3000612CEDCE8091460190E06CE070E007D826
:100F4000E80FF91FF5CE812CF6CE40E018CF2091A6
:100F50007901D21708F41ECFC8018E199F096EE0DF
:100F600070E012D8DB01609373018D2F821B809398
:100F70007401663008F00ECF853008F00BCF70900A
:100F80007A0171102CC090E066E070E0E0D78B5BD6
:100F90009E4FA80FB91F14969C9198306CF48091C5
:100FA00071016EE0CBD7382F97FDF4CEED2DE81907
:100FB000EE3020F0EE50FCCF30E0F8CF892F990FC3
:100FC000990B6EE070E0C3D7E80FF92FF11DE30F26
:100FD000F11D37FDFA95EC56FD4FC491DCCE811121
:100FE0002AC0AB5BBE4F14969C9198306CF48091F4
:100FF00071016EE0A3D7282F97FDCCCEED2DE81917
:10100000EE3020F0EE50FCCF20E0F8CF892F990F82
:10101000990B6EE070E09BD7E80FF92FF11DE20FFE
:10102000F11D27FDFA95EC56FD4FC49101C0CC0F80
:101030007A94EAF7B0CEA82EB12CC501019766E0EC
:1010400070E085D78B5B9E4FFC01EA0FFB1F9481FC
:1010500098304CF4809171016EE070D7382F97FF73
:1010600003C020E022C030E0ED2DE819EE3010F092
:10107000EE50FCCF892F990F990B6EE070E067D787
:10108000E80FF92FF11DE30FF11D37FDFA95EC562E
:10109000FD4FE4912E2F30E088E090E08719910910
:1010A00002C0359527958A95E2F7C50166E070E0A4
:1010B0004ED78B5B9E4FA80FB91F14969C9198300A
:1010C0004CF4809171016EE039D7382F97FF03C03F
:1010D000C0E01BC030E0ED2DE819EE3010F0EE500E
:1010E000FCCF892F990F990B6EE070E030D7E80F95
:1010F000F92FF11DE30FF11D37FDFA95EC56FD4F69
:10110000C49101C0CC0F7A94EAF7C22B44CE20E000
:1011100030E040E05FE3EED59FCEECD5B6CE23E0E5
:10112000271508F0DCCE8AE090E0F4DBC50166E02C
:1011300070E00DD78B5B9E4F8E0D9F1DE8E0DC01AC
:101140001496EC93FFEFF0936E0124DB80916E0117
:10115000811126C020916F0130E080914501082E59
:10116000000C990B28173907DCF00E9682179307AD
:10117000BCF0FF24F39461E08F2DD7DCF39424E6D8
:10118000F212F9CF80917D00833008F04EC08F5F5E
:1011900080937D0082E390E0BDDB48E84093450109
:1011A000E0917001F0E0EE56FD4F9491462D4C2BEE
:1011B00030914801832F86958D133CC08091470163
:1011C000D81238C030FD38C03FE0E92FE42B4E2F55
:1011D000432BE0E0D11117C0F801F595E795F5959F
:1011E000E795EF57FF4FE081EE2369F0E053FF0BE7
:1011F000EE0FFF1FEE0FFF1F8D2D8370E80FF11D07
:10120000E653FE4FE491C42FCE2B8091C10088237A
:1012100039F051E0591520F06D2F8D2D20DBC82BB2
:101220008C2F45DC0F5F1F4F29CD86E990E0B4CFAE
:1012300090E0BCCF30E0C9CF30EFC7CF81E0C8121B
:1012400005C0F801ED53FF4FC081EACF6D2F802F0D
:1012500006DBC82FE5CFC1100CC08091C200811100
:1012600008C080916E01863021F460916F0180E0AA
:10127000A6DAF6DBDF5F9FEF291A390A9394D8309C
:1012800009F0ECCCC11019C02091790130917501A1
:1012900085E090E0831B91092817190674F080916E
:1012A000C200813051F0E7E6F1E086E0DF011D92F7
:1012B0008A95E9F781E08093C200DF91CF911F9179
:1012C0000F91FF90EF90DF90CF90BF90AF909F90E5
:1012D0008F907F906F905F904F903F902F900895E8
:1012E000A12C66300CF4DBCD31CFFC01DB01859104
:1012F000382F307C61F0912D303819F09A9508F430
:101300009591831B481B9D938150E9F705C0481BAD
:1013100095919D938150E1F74111E9CFCF01089557
:1013200083E08ABD83BF789480E48CBD9FEF9DBD30
:1013300087EC80BF87E886B987B3857D87BBBC9A79
:10134000C09AC29ABA9AB89A9FB98AE28DB980EFC8
:101350008EB9CBE9DFE0B5DB81110AC090E080E017
:1013600001968B309105B9F3FE013197F1F7F8CF73
:1013700077DBC8DBCEE2D0E008E410E0FE01849128
:1013800096DB21960C171D07C9F76ADBBBDB80EBE8
:101390008EDB80E18CDB80E08ADB62DBAFDBC0E0F0
:1013A000D1E080E084DB80E082DB80E080DB80E0F5
:1013B0007EDB2197B1F754DB1DDB1092440132E054
:1013C000732E46E0242E312C412C512C41DB809190
:1013D0004401882309F44CC14CE06EE870E082E0DF
:1013E000C7DB4FE068E470E080E2C2DBABDA67E9BC
:1013F00070E071DA9ADA5C014C01F3E08F0E911C17
:1014000021E8C22E20E0D22EEC018C169D0609F4B4
:1014100047C083E0F501A8EBB0E001900D928A95FA
:10142000E1F7688080E811DA845F91407C0183E80D
:101430000CDA8C01045F11402AEFE216F10418F077
:101440000A3F110538F463948AE5861510F49FE38A
:10145000692E83DB9AEFE91AF108A8ECEA16F10489
:1014600028F00A5F1109083C110538F46A94BEE3BC
:10147000B61510F08AE5682E70DB6882862D8068CC
:10148000F60187AB82E079DB6EDB892B51F665DBF9
:101490006ADB892BE9F32196FFEFCF1ADF0AB5CF7C
:1014A0006EDA1092440110926C0010927900109242
:1014B000780083E080937D0010927B0081E0809330
:1014C000430110927F001092C10010927E00A5DAB5
:1014D000D0E0BEDAC1E0CD0F81E0D43148F0C332B4
:1014E00008F0DEC047E367E570E085E041DB82E0BD
:1014F00044DB39DB892B09F0F1C02FDB66246A94C9
:101500008CDAC1E0C093C10080E037DB1092C100EB
:10151000FFEF23ED80E3F15020408040E1F700C071
:1015200000001092C20010927A0088E180937D0141
:10153000E5E4F1E088E3DF011D928A95E9F7809107
:101540007B00082E000C990B68E170E000D5BC010F
:1015500066527F4F48E150E089E491E055D346E080
:1015600050E06FEF7FEF81E691E035D546E050E047
:101570006FEF70E087E691E02ED580E18093470120
:101580008093480188E88093450160926E0183E072
:101590008093750184E18093780180917B00843091
:1015A00008F4A7C0C093790188E080937B0181E0B3
:1015B00080937C0110927F00EDD888E380938000B7
:1015C000C6E310927C00D0E00FE711E080917D012E
:1015D00081119CC06FEF8EE6A8DABFEFE3EFF1E078
:1015E000B150E040F040E1F700C000006FEF82E84A
:1015F0009CDA2FEF83EF91E0215080409040E1F79B
:1016000000C000006FEF84E690DAAFEFB3EFE1E0E7
:10161000A150B040E040E1F700C000006BE981E07C
:1016200084DAFFEF29EF80E0F15020408040E1F7BD
:1016300000C000006FEF8CE378DA6FEF8CE375DAAF
:10164000ECD981E080937F00809143018F5F80938C
:10165000430180917B00893018F48F5F80937B0079
:1016600080917F00882309F447C080E086DAF8CFB4
:1016700080916C00811117CF40E46AE970E078DA5C
:1016800079D969EA70E027D982E077DA2FEF8BE722
:1016900092E9215080409040E1F700C0000003CF64
:1016A000C233D0F440E46AE970E080E061DA49E0F6
:1016B00061E970E083E15CDA10929C0036D9FC01AC
:1016C00093E0A5EAB0E001900D929A95E1F73AD93E
:1016D00069EA70E000D90BCFC0E00BCFAFEFB3ECFD
:1016E000E9E0A150B040E040E1F700C00000DC2F8D
:1016F000F0CE1092790158CF9FEFA9E6B8E1915052
:10170000A040B040E1F700C00000FACE009376019F
:10171000E0E8E0937701E9E4F1E08FE720E0319140
:101720009581438594239323318993239F3F29F007
:101730008F3719F4822F62EF01D42F5F263079F7AB
:1017400080937601EFE4F1E09CE220E8829136811B
:10175000832334858323328983238F3F19F02038F4
:1017600009F4292F925F903889F7209377018091AF
:10177000750190E0019620917901820F911D0797E4
:1017800021F4D11102C010937C0080917A009091D5
:101790007B0029E030E0291B31098217130611F084
:1017A0000CF0C3C08F5F80937A0080E0E6D981E0BF
:1017B00090914601911180E08093460190E080E095
:1017C000FC01E75BFE4F30E020812B3014F02FEF5F
:1017D00020832191283024F0DF0111972F5F2C9373
:1017E0003F5F363089F706968831910549F7809139
:1017F0004801D0908000ED2CF12C8031E9F060910F
:10180000470192EF980F923058F46D1548F0970108
:10181000225F3F4F6217130609F014F410937C0007
:101820008695863009F0BBC081E0C9D7882309F4CA
:10183000B6C080E18093480180914501883831F03D
:1018400082508D3E0CF4AFC08093450180917801A9
:101850008A51833050F480917901823031F4809143
:101860007A01843011F4009345012C2F30E0C70138
:101870000296821793074CF4C9018E199F0963E001
:1018800070E082D3D60ED092800040918000842FE9
:1018900090E0BC01625071092617370744F4821B9F
:1018A000930B6DEF7FEF70D3460F409380008091D4
:1018B0007C00813009F4DFC08091720190917B013E
:1018C000891708F074C08F5F8093720180E8BDD7DC
:1018D000845F91408A3F910518F4CC3608F4CA5FC2
:1018E0008A5F9109883C910518F4C63008F0C6500B
:1018F0003AD9892B79F4A2E07A120CC064E088EC22
:1019000014D986E080936E01809180008A5F809375
:101910006F01712C80916E018F3F09F057CE22E04C
:10192000721609F453CE739451CE10927A0015D1E9
:101930004B015C0112D16B017C0180914801803127
:1019400009F033CFC501B40123E030E040E050E0BE
:1019500093D1B62EC701B601A20191018DD1262FD8
:101960008B2D90E066E070E0F2D28B5B9E4FFC0125
:10197000E20FF11D84818F3F09F417CF9091780118
:10198000995F822F6EE0DAD2890F809347018091B0
:101990007901B80EBB0CB394B092480106CF809188
:1019A00048018F5F47CF98E8909345014FCF83E080
:1019B0008093750123E0822F90E066E070E0C7D24B
:1019C000FC01E75BFE4F96E081918F3F21F491503F
:1019D000D9F72150F0CF209375018091710161E01A
:1019E000812780937101811110C084E69ED8809177
:1019F000780190917C01913011F5909177018917D0
:101A000034F48E5F809378010DC088ECEFCF809125
:101A10007A01873060F48C5F883038F480937A01E3
:101A200010927C011092720151CF87E0F7CF809124
:101A300079018F5F8093790110927A01F1CF9091B3
:101A40007601981714F48250DDCF80917A018730A7
:101A500050F48C5F883028F480937A0110937C01D5
:101A6000E1CF87E0F9CF809179018F5F8093790191
:101A700010927A01F3CF61E080E557D861E084E607
:101A800054D8DF5FDE3108F445CFBFEFEBE4FDE172
:101A9000B150E040F040E1F700C0000080917501D6
:101AA00090E0019620917901820F911D079709F42A
:101AB0008DCC80917D00882309F488CC815080935F
:101AC0007D007FCD8F929F92AF92BF92CF92DF9297
:101AD000EF92FF92CF93DF93EC01688179818A8145
:101AE0009B81611571058105910521F464E279ED11
:101AF0008BE597E02DE133EF41E050E0BDD04901A7
:101B00005A0127EA31E440E050E09DD06B017C01AE
:101B10002CEE34EF4FEF5FEFC501B40194D0C60E49
:101B2000D71EE81EF91EF7FE06C081E0C81AD108CC
:101B3000E10880E8F80AC882D982EA82FB82C701FC
:101B4000B6019F77DF91CF91FF90EF90DF90CF901C
:101B5000BF90AF909F908F9008958F929F92AF9279
:101B6000BF92CF92DF92EF92FF9260916D007091E1
:101B70006E0080916F009091700061157105810574
:101B8000910521F464E279ED8BE597E02DE133EFE7
:101B900041E050E071D049015A0127EA31E440E0C8
:101BA00050E051D06B017C012CEE34EF4FEF5FEF32
:101BB000C501B40148D0C60ED71EE81EF91EF7FEB7
:101BC00006C081E0C81AD108E10880E8F80AC0928E
:101BD0006D00D0926E00E0926F00F0927000C7012D
:101BE000B6019F77FF90EF90DF90CF90BF90AF90BE
:101BF0009F908F90089560936D0070936E00809316
:101C00006F00909370000895FB01DC0102C0059005
:101C10000D9241505040D8F70895E199FECF9FBBF7
:101C20008EBBE09A99278DB30895262FE199FECFB8
:101C30001CBA9FBB8EBB2DBB0FB6F894E29AE19AFB
:101C40000FBE01960895EE27FF27AA27BB2708C0DD
:101C5000A20FB31FE41FF51F220F331F441F551F90
:101C6000969587957795679598F37040A9F70097B3
:101C700099F7BD01CF010895052E97FB16F4009446
:101C80000FD057FD05D014D007FC02D046F408C091
:101C900050954095309521953F4F4F4F5F4F089598
:101CA00090958095709561957F4F8F4F9F4F0895C8
:101CB000A1E21A2EAA1BBB1BFD010DC0AA1FBB1F50
:101CC000EE1FFF1FA217B307E407F50720F0A21BC2
:101CD000B30BE40BF50B661F771F881F991F1A942F
:101CE00069F760957095809590959B01AC01BD0159
:101CF000CF0108955058BB27AA270ED0E5C0D6D0F3
:101D000030F0DBD020F031F49F3F11F41EF4CBC053
:101D10000EF4E095E7FBC1C0E92FE7D080F3BA17D6
:101D2000620773078407950718F071F49EF5FFC0EA
:101D30000EF4E0950B2EBA2FA02D0B01B9019001E6
:101D40000C01CA01A0011124FF27591B99F0593F2A
:101D500050F4503E68F11A16F040A22F232F342F72
:101D60004427585FF3CF469537952795A795F040C0
:101D70005395C9F77EF41F16BA0B620B730B840BD5
:101D8000BAF09150A1F0FF0FBB1F661F771F881F8D
:101D9000C2F70EC0BA0F621F731F841F48F48795E5
:101DA00077956795B795F7959E3F08F0B3CF9395D4
:101DB000880F08F09927EE0F97958795089504D01E
:101DC0006894B111B5C0089598D088F09F5790F0ED
:101DD000B92F9927B751A0F0D1F0660F771F881F50
:101DE000991F1AF0BA95C9F712C0B13081F09FD08F
:101DF000B1E008959CC0672F782F8827B85F39F02D
:101E0000B93FCCF3869577956795B395D9F73EF4AE
:101E100090958095709561957F4F8F4F9F4F089556
:101E2000E89409C097FB3EF4909580957095619574
:101E30007F4F8F4F9F4F9923A9F0F92F96E9BB272A
:101E40009395F695879577956795B795F111F8CFA6
:101E5000FAF4BB0F11F460FF1BC06F5F7F4F8F4F11
:101E60009F4F16C0882311F096E911C0772321F007
:101E70009EE8872F762F05C0662371F096E8862F9F
:101E800070E060E02AF09A95660F771F881FDAF7F6
:101E9000880F9695879597F9089597F99F6780E839
:101EA00070E060E008959FEF80EC089500240A94AC
:101EB0001616170618060906089500240A94121625
:101EC0001306140605060895092E0394000C11F458
:101ED000882352F0BB0F40F4BF2B11F460FF04C005
:101EE0006F5F7F4F8F4F9F4F089557FD9058440F5E
:101EF000551F59F05F3F71F04795880F97FB991F69
:101F000061F09F3F79F08795089512161306140625
:101F1000551FF2CF4695F1DF08C0161617061806B2
:101F2000991FF1CF86957105610508940895E8948D
:101F3000BB2766277727CB0197F90895002480FDFA
:101F4000060E660F11F08695D1F7802D08950024B6
:101F5000552704C0080E591F880F991F009729F0B4
:101F600076956795B8F37105B9F7802D952F08958B
:101F7000991B79E004C0991F961708F0961B881FDB
:101F80007A95C9F78095089597FB072E16F400946B
:101F900006D077FD08D00BD007FC05D03EF4909515
:101FA00081959F4F0895709561957F4F0895AA1B65
:101FB000BB1B51E107C0AA1FBB1FA617B70710F034
:101FC000A61BB70B881F991F5A95A9F78095909566
:101FD000BC01CD010895DC0101C06D93415050401A
:081FE000E0F70895F894FFCF2B
:101FE8001027E80364000A00010000000101000056
:021FF8000000E7
:00000001FF
