:10000000B8C3D2C3D1C3D0C3CFC376C9CDC3CCC3C9
:10001000CBC3CAC3C9C3C8C3C7C3C6C3C5C3AE2045
:1000200000B0C8001040813FA1A6A83FA4D300D5CE
:1000300080D922DA12DB208D14AF454E5445520090
:10004000594F5552004E414D454E45570048495372
:10005000434F5245405B5C5D3C3D3E5B5C5D5E5F9B
:1000600060613A3B0000000047414D45004F564556
:1000700052003C3D3E5E5F600031555000313233EE
:10008000343500000000613A3B5B5C5D5E5F603CC4
:100090003D3E5B5C5D5E5F60000031300000000053
:1000A00000000000003C3D3E000032300000000037
:1000B00000000000005B5C5D0000343000000000C8
:1000C0000000000000613A3B00003F3F00000000DC
:1000D00000000202020202020404040404040404F4
:1000E00004040404040404040404040200000204DC
:1000F000040200000204040404040404FF000000DD
:1001000000FF020202020202040404040404FF04C9
:10011000040404FF00FF0000FF0002FF0202FF02D0
:1001200004FF0404FF0404FF0404FF04FFFF0202B1
:10013000FFFF00020202020002040202040202FFA8
:10014000FFFFFF020404040404040202020202028C
:10015000000000000000000000000000FF000000A0
:1001600000FF02FFFFFFFF0204FFFFFFFF04FF0489
:10017000040404FF04FF04FF04FFFF04FF04FF0462
:1001800004FF04FF04FFFF04FF04FF04FFFF00005F
:10019000FFFF020204040202020204040202FFFF43
:1001A0000000FFFF00000404020200000404020239
:1001B0000000040402020000040402020000000027
:1001C00036000202020202020102040810200003AB
:1001D0000C0F30333C3FC0C3CCCFF0F3FCFF3C22CC
:1001E0001E00003E00003A2A2E00222A3E000E0881
:1001F0003C002E2A3A003E28380002320E003E2AE9
:100200003E000E0A3E003C2C2C3C28783020701812
:100210007DB6BC3C3CBCB67D1870022A0E00002E98
:1002200000003C0A3C003E2A14001C2222003E2210
:100230001C003E2A22003E0A02001C2232003E0818
:100240003E00003E000030201E003E0836003E20EA
:1002500020003E0C3E003E1C3E001C221C003E0ABC
:1002600004001C223C003E0A3400242A1200023EF4
:1002700002003E203E001E301E003E183E003608A2
:1002800036000E380E00322A2600000058BC163FF9
:100290003F16BC5800009C9E5E76375F5F37765EE7
:1002A0009E9C20307828F00F00000058BC163F3F7D
:1002B00016BC58000000000000985CB65F5FB65C9A
:1002C000980000000070187DB6BC3C3CBCB67D18A0
:1002D0007000001EB87D363C3C3C3C367DB81E00AC
:1002E000009C9E5E76375F5F37765E9E9C00001CAA
:1002F0005EFEB6375F5F37B6FE5E1C00004060F002
:10030000507858587850F0604000004060D07058E5
:1003100078785870D0604000000000000024181861
:1003200024000000000000000081002418182400B0
:10033000810000000000248118245A5A24188124C6
:100340000000420024814A3CA4253C4A812400420A
:1003500070787878787E7F7E787878787054D1B4A9
:10036000783CF034F88078EAE07480C08000008047
:10037000C080000080C0800000315550BF0180C0A7
:1003800082E089F000E081C000E088F081E08BF03D
:1003900081E088F000E081C000E084F081E001C0ED
:1003A00080BDBB02789C1E8B1F003FC6841FDB856F
:1003B0003FC6813F043E3C38B060B7BC0201020634
:1003C000820400FCA483FCC2027F1FFF8404C68455
:1003D00007000F8507810F011F7FC500FCA30C01DB
:1003E000FF7F3F1F07804020180E0301B8BFA20205
:1003F000037C80A201037FC2011F03A10107F8A3B0
:100400000007C1000FC1007FA303807E077FC200E9
:100410007EA20080C6007EA304C030180603BF057C
:1004200000C0E0F0F8FC86FE00FC85FE02FCF0EE69
:1004300089FE00FC81F801FEFF84C0C100E181C09B
:1004400082F800FF84C0C100F0C184C000FF82F8C0
:10045000C283C001FFF8C102DFC7C182C002F8F643
:10046000E187F885FE02FCF0E081F000F881FC876E
:10047000FE00F881E000C0A208070F79E1C1010386
:100480000F3FC106F9C383070F1F7FC101F38382AA
:1004900003003FC101FBC3810302070F7FC200E1DC
:1004A00083010003C483038301000FC4840383F327
:1004B00081030007810FC38303008386F3C2011FFA
:1004C000038101008181F181F38303008FC2017FE9
:1004D0001F810F0487E3F3F13182010181E7807E00
:1004E000A30F03071C38E08003071F7FFEF0E080A6
:1004F0000001810701CE80A201073FC109FCF0C0C5
:1005000000030F3FFFF880A2003FC3A302FEFCE000
:10051000A10003C4A3C2000FA300F8C1000FA300F1
:10052000C084CFC2023F0701A106809E9F1F0F61BA
:10053000E081F000FCC101EF83828006981E1F1E3F
:100540001FF6E68206010701A01F70807000800080
:100550003820F8030F1C70E081838FBFFEF8E08025
:10056000818F9FFEDC30E0C0839FC005CF1F7CE001
:10057000C08181838380C1010FFF838000F38113D9
:1005800000F08280009FC2828000BC82BF81800216
:10059000C0E07FC10087838000BE83BFC2019F830C
:1005A000818001F0FEC1078F8180E0F03EFFDF8295
:1005B000870097819F08DFC7E160381C0E0301A503
:1005C000C100FDD000FDCB0B3F5F1FCF2FC7BFE7A2
:1005D0007FEFFFBFCE00FBCD00F7CE007FCC007FCA
:1005E000CF00F7C4CD00FEC900FDC510C014E9F668
:1005F000BDEFFDFFFDFFBFFFD77FDFBFF6CF007F61
:10060000DFC100BFCB00DFC700BFC4CB00EFD40900
:10061000FEFFFDF7FFF7FFF7FFFDC100FDDA1BBF8F
:100620007F1FBF0F478F23479343B54BA3DBA5DB4A
:10063000B3E75BF7AFF76FFFDFFF5FC900BFCED453
:1006400000DFCB00EFD400BFCA1F9F0F431502503D
:1006500004A218E20CF20CF3ACDAF5BAED7AEFDA98
:10066000BFF6FFEFFDF77FFFEDFF807F08FBBFFECA
:10067000DF7DF7DFFFBFC200BFCD01FFFED000BFAF
:10068000C300AFC300BFDFC31F11240852005528A9
:10069000C31CD1B64DFA57FDD76EFBEE77DFF5DF01
:1006A000FBFDBFFAFFFDFFFD7F80FE02BFFFDFC243
:1006B00000BFC201FEABC900FDC5CD00FEC10EF7F3
:1006C000FFF7FFB6D5F780F7D5B6FFF7FFF7DF19CD
:1006D000FFF648A11449A659A5BA6BDE75FFDB7F6A
:1006E000EDFFF7FFFD7FFFFDFFFEC310DFFBFFBF48
:1006F000F7DFFBBF6DDFFFB77FFF57BED5C5007FBC
:10070000C700BFC0C600FDCA00FEC301FAEFC200A9
:10071000FED200FDD00FFEE9D46B9679D7BDD7FD90
:10072000EFBDF7DFFFEEC300EFC211FBEEFF77FD79
:10073000FFDFF6EF7DEBFF56BDCBF5F6FDD2C50032
:10074000EFCE00FBD9007FC900EFCA1EFDFEFFFA05
:10075000F7FDEFF7DEEFFFBFEEFFDFBFFFDFFEBF0E
:10076000FFAFFFDFFBFFF6FFFBFFFCC600FEC5008F
:10077000FBC911241FBECFE5D2E0DEBFCDBF10E024
:10078000A0E6B0E0E0E7FFE102C005900D92A237DD
:10079000B107D9F721E0A2E7B0E001C01D92AB3864
:1007A000B207E1F7F3D5E2CB2BCCC298C098C29A3E
:1007B000C09A089530E020E090E0AC01022E01C024
:1007C000440F0A94EAF747FF0CC0C09AC29AC29835
:1007D0002F5F3F4F2830310581F7C09AC29AC298E7
:1007E0000895C098F3CFC29AC09AC098C29808954D
:1007F000CF93C82FF8DF88E7DDDF80E0DBDF8C2FC9
:10080000D9DFCF91D2CF30E020E080E0F901E05B8A
:10081000FE4F96E041914F3F19F046300CF48F5F48
:100820009150C1F72A5F3F4F2831310579F7809306
:1008300084018695869586958093820108951F93FD
:10084000CF93DF939DEE960F6C57ECE4F1E0C0E898
:10085000D0E041E050E04C5451409830F0F49E011B
:10086000092E02C0359527950A94E2F7DF01AC54B2
:10087000B14072A1172F122381F0A45BBE4F2095C7
:10088000272392962C93811103C08FEF80937501DB
:1008900081E0DF91CF911F91089528EF290F283033
:1008A00070F4DE0102C0B595A7952A95E2F79D0187
:1008B000DA01AE0FBF1F73A1172F1223F1F6935267
:1008C00032969613CACF80E0E4CFE9ECF1E0849150
:1008D000E3ECF1E0E491EE2371F0F0E0EE0FFF1FA6
:1008E000E454FE4FA591B491EC91E82381E090E0AF
:1008F00021F480E0089580E090E008958F7787B933
:1009000087B187B9369A3699FECF84B195B10895EB
:100910009C01A0E6B0E0FB014D915D9190E32417AE
:10092000350720F09F5F241B350BF9CF91938D91F4
:100930009C911197892B81F708952091780030912F
:100940007900820F931F9093790080937800089527
:1009500087E891E00895E5E8F1E080E09191890F62
:1009600091E0EB38F907D0F30895809185019091DB
:100970008601089590938601809385010895F5DF9F
:1009800020917800309179008217930720F4C901F3
:10099000F1DF81E0089580E00895809178009091E2
:1009A00079000895FF920F931F93CF93DF931092D6
:1009B0008A01D1DF9AE2981B90938A0105E811E041
:1009C000C0E8D0E0F801F1908F01CE01EAD8F81626
:1009D00019F06F2DCE01EDD82196F1E00B381F07ED
:1009E00088F3DF91CF911F910F91FF9008950F939E
:1009F0001F93CF93DF93C5E8D1E000E810E0C80172
:100A0000D0D889930F5F1F4F81E0CB38D807B8F358
:100A1000DF91CF911F910F910895E9DF9CDF8A321A
:100A200071F0109286011092850143E050E06FE36F
:100A300070E087E891E093DA10928A01B3CF0895CD
:100A4000EAE8F0E080E4DF011D928A95E9F7089575
:100A500020E08111C49A982F9095392F315028F0B9
:100A600045E04A95F1F70000F9CFC498915028F07D
:100A700035E03A95F1F70000F9CF2F5F6213E9CF27
:100A800008956DE784E6E4DF6DE782E3E1CF50E0AF
:100A900090E086579F4F7CC82F923F924F925F9273
:100AA0006F927F928F929F92AF92BF92CF92DF927E
:100AB000EF92FF920F931F93CF93DF9300D000D05C
:100AC0001F92CDB7DEB7782E20EC422E25E0522EB5
:100AD000882321F09CE7492E93E0592E50DF909116
:100AE0004B01892B80934B01711020C0A9DF43E09B
:100AF00069E773E080E0CBDF2BDFFC0193E0A0EA45
:100B0000B0E001900D929A95E1F780914B01882316
:100B100029F043E069E773E086E1B9DF3EDF6EE884
:100B200070E0F6DE22DF64EA70E0F2DE8091890098
:100B30006EE0E2D9282F80918800882361F090919F
:100B400087009C5F9F7790938700992311F09434DE
:100B500011F410928800809187008C5C820F8F774F
:100B600080937401912C812C88E8682EE82C8BEC02
:100B700090E040E850E092012F5F3F4FF201649116
:100B800067FF21C0762F7076B9F066FB772770F982
:100B900071956F7111E0160F1983B82FFC017193D5
:100BA000AE2FAB1B1981A117D0F370E06F5F7F4FA1
:100BB000860F971F29011EC0F2E04F0E511CF9014C
:100BC00074919201E6CF71E0760F7983F9018B83FE
:100BD000DC0174917D9331967A2F1B81711B1981F1
:100BE0007117B8F370E06F5F7F4F2901460E571EF3
:100BF000860F971F2981421B510909F0BCCF80EB5A
:100C00008E0DF6DD80E0F4DD80E1F2DDECDD88E7DD
:100C1000D1DD80E4CFDDC4019595879504E0880F90
:100C2000991F0A95E1F710E000E0AC0146575F4FCD
:100C30005A8349835E2D51705B8333243A94F02E9E
:100C40000038110509F409C37110CDC22091CA0002
:100C500021114DC176E0E7121DC03DEE300FE0E0FE
:100C6000383008F023C1F0E0E45BFE4F42A180E899
:100C700090E0032E02C0959587950A94E2F78423AD
:100C800049F0313009F435C108F429C1383008F091
:100C900026C12FE0E0917401EF0DEF77F0E0E5530E
:100CA000FF4FD080D0948091860090E065E070E0A6
:100CB00012D90197D801A81BB90B1A161B060CF400
:100CC0001AC1B7E0EB1217C1F801E659FC4F349195
:100CD0003C832D2980918900F801E81BF109ED3052
:100CE000F10508F013C147E0E41210C180918500BE
:100CF000811103C1E05BFC4FA491DC80D22A2091DA
:100D00004C01283809F404C1E11002C1022E000C84
:100D1000330B021713070CF4FBC0A8014E50510906
:100D2000241735070CF4F4C0F801E21BF30B809193
:100D30004D0190E06EE070E0CED8E80FF91FE4506E
:100D4000FD4F24912D83DA2AC0907F01FC1408F016
:100D5000E1C01C827D817D297D8380917601F8121E
:100D60001EC220917501822F022E000C990B88154E
:100D7000990509F014C227FD12C29091770181E014
:100D8000911180E080937701911103C0215020934D
:100D90007501FC1408F4C0C1D12C96012C5A3F4FA8
:100DA000201731070CF4B8C1A0907501AA0CBB083C
:100DB00090E00196A80EB91EA501440F551F440FDF
:100DC000551F8091800190E09C01B3E0220F331FFA
:100DD000BA95E1F7421753070CF49EC1205E3F4FCE
:100DE000241735070CF498C1880F991FA81AB90A5F
:100DF000B501B7FE02C06F5F7F4F75956795072EEF
:100E0000000C880B990BD2D720E030E040E05FE384
:100E1000AFEFAA16BA060CF465C131D794D7A62E47
:100E2000F801EC19FD096F01CF016EE070E070D898
:100E3000072E000C880B990BB9D720E030E040E07A
:100E40005FE3F3EFCF16FFEFDF060CF44DC117D7CA
:100E50007AD7A7FC4CC266300CF05EC123E02A159D
:100E60000CF45AC10A2C000CBB0867FD60E0C62ECA
:100E7000660FDD08C50166E070E02DD8845B9E4FEB
:100E8000FC01EC0DFD1D248035E0321508F444C151
:100E90006AE082E3DDDD41E0421508F427C18AE023
:100EA00090E04BDD8AE090E048DD24C148EF430F3D
:100EB0004830B8F4EF5FF0E0E45BFE4F32A180E829
:100EC00090E0042E02C0959587950A94E2F783235B
:100ED00009F4E0CE463069F0473009F0DACE20EF71
:100EE000D9CE3352EE5FE63009F0BACED3CE20E051
:100EF000D1CE2CEFCFCE1C82ECCE80914D0190E074
:100F00006CE070E0E8D7E80FF91FF4CEA0E0F5CE72
:100F10001D8219CF20918001E21608F41ACFC80172
:100F20008C1991096EE070E0F3D760937A018E2DF1
:100F3000821B80937B01663008F00BCF853008F070
:100F400008CF20908101DB01BB2721102EC090E04B
:100F500066E070E0C0D7845B9E4FA80FB91F14965F
:100F60009C91983074F4809178016EE0ABD7282F73
:100F70009F3F09F4EECEEF2DEC19EE3020F0EE504D
:100F8000FCCF20E0F8CF892F990F990B6EE070E02D
:100F9000A2D78E0F911D820F911D27FD9A95FC01FE
:100FA000E855FD4F34913C83D5CE81112CC0A45B14
:100FB000BE4F14969C91983074F4809178016EE045
:100FC00081D7282F9F3F09F4C4CEEF2DEC19EE30C6
:100FD00020F0EE50FCCF20E0F8CF892F990F990B2D
:100FE0006EE070E078D78E0F911D820F911D27FD66
:100FF0009A95FC01E855FD4F449101C0440F2A9495
:10100000EAF74C83A7CEA82EB12CC501019766E064
:1010100070E061D7845B9E4FFC01EA0FFB1F948157
:1010200098304CF4809178016EE04CD7382F9F3F78
:1010300019F41C8223C030E0EF2DEC19EE3010F0D3
:10104000EE50FCCF892F990F990B6EE070E043D7DB
:101050008E0F911D830F911D37FD9A95FC01E85568
:10106000FD4FE4912E2F30E048E050E04219510945
:1010700002C0359527954A95E2F72C83C50166E0B5
:1010800070E029D7845B9E4FA80FB91F14969C91DE
:1010900098304CF4809178016EE014D7282F9F3F50
:1010A00019F4E0E01BC020E0EF2DEC19EE3010F059
:1010B000EE50FCCF892F990F990B6EE070E00BD7A3
:1010C0008E0F911D820F911D27FD9A95FC01E85509
:1010D000FD4FE49101C0EE0F2A94EAF75C815E2B8C
:1010E0005C8338CECBD59ACEC9D5B2CE53E052155B
:1010F00008F0D8CE8AE090E020DCC50166E070E020
:10110000EAD6845B9E4FC80ED91EE8E0D60114963D
:10111000EC933092750177DB80917501811124C0C9
:101120002091760130E080914C01082E000C990B43
:1011300028173907CCF00E9682179307ACF0DD2400
:10114000D39461E08D2D84DCD394F4E6DF12F9CFE3
:1011500080918600833000F58F5F8093860082E364
:1011600090E0EBDB60924C01E0917701F0E0EA5512
:10117000FD4F9491EC812D81E22B20914F01822F24
:1011800086958E110EC080914E01F8120AC08FE034
:1011900020FF08C080EF06C086E990E0E2CF90E033
:1011A000E9CF80E0E92B8E2BE0E0E11017C0F801D9
:1011B000F595E795F595E795E657FF4FE081EE2326
:1011C00069F0E053FF0BEE0FFF1FEE0FFF1F3F2DE7
:1011D0003370E30FF11DE252FE4FE4918E2BEADAF9
:1011E0000F5F1F4F2CCD41E0F801741204C0E5538E
:1011F000FF4F8081F4CF43E0F595E7954A95E1F7FD
:1012000089819A81E80FF91F208180E0222339F338
:10121000E22FEF77E053FF0BEE0FFF1FEE0FFF1FE4
:10122000C8019595879583709927E80FF91FE252B9
:10123000FE4FE4919B81911109C0EF70F0E0E25301
:10124000FE4F849127FFCBCF8095C9CFF0E084E09B
:10125000F595E7958A95E1F7F2CF71100CC0809172
:10126000CA00811108C080917501863021F4609117
:10127000760180E0E4DA99DAAFEF8A1A9A0AB8E0E8
:101280008B16910409F072CC711019C02091800165
:1012900030917C0185E090E0831B910928171906A5
:1012A00074F08091CA00813051F0EEE6F1E086E002
:1012B000DF011D928A95E9F781E08093CA000F90C3
:1012C0000F900F900F900F90DF91CF911F910F9182
:1012D000FF90EF90DF90CF90BF90AF909F908F9056
:1012E0007F906F905F904F903F902F900895A12C2A
:1012F00066300CF4B7CD10CF1F920F920FB60F923D
:1013000011242F933F938F939F93AF93BF9380911B
:10131000810090918200A0918300B091840030916F
:10132000800023E0230F2D3768F126E8230F029673
:10133000A11DB11D209380008093810090938200B5
:10134000A0938300B093840080917C0090917D00F5
:10135000A0917E00B0917F000196A11DB11D8093E8
:101360007C0090937D00A0937E00B0937F00BF919E
:10137000AF919F918F913F912F910F900FBE0F9042
:101380001F9018950196A11DB11DD4CF83E08ABD91
:1013900083BF789489B7826089BF80E48CBD8FEF6A
:1013A0008DBD87EC80BF86B1876886B9379AB89AB9
:1013B000BA9ACEE1D0E0FE0184911ADA2196F0E0EB
:1013C000CA33DF07C1F787B3857D87BBBC9A25DBAE
:1013D00010924B0142E0242E56E0452E512C612CF8
:1013E000712C2EDB80914B01882309F451C14CE014
:1013F00069E470E082E04BDB4FE06AE370E080E29A
:1014000046DBB3DA60EA70E083DAA2DA5C014C0111
:1014100023E0820E911C3AE8C32E30E0D32EEC017B
:101420008C169D0609F447C083E0F501A1ECB0E0FD
:1014300001900D928A95E1F7388080E85FDA845F49
:1014400091407C0183E85ADA8C01045F11408AEFF5
:10145000E816F10418F00A3F110538F433949AE5C0
:10146000931510F42FE3322E0CDBEAEFEE1AF1089D
:10147000F8ECEF16F10428F00A5F1109083C110599
:1014800038F43A942EE3231510F09AE5392EF9DA60
:101490003882832D8068F60187AB82E0FDDA15DAA9
:1014A000892B51F6EEDA11DA892BE9F32196FFEF59
:1014B000CF1ADF0AB5CF76DA10924B0110926C008A
:1014C000109279001092780083E080938600109249
:1014D0007B001092880010928700B2DAD0E0C0E062
:1014E0008E010F5F1F4F81E0CA3FD10560F0D0E051
:1014F000C0E0043FE1E01E0740F447E365E970E027
:1015000085E0C5DA82E0C8DAE801DFD9892B41F746
:10151000B8DA1092CA0010927A0088E180938401B0
:1015200088E3ECE4F1E011928A95E9F7C0917B0041
:101530008C2F0C2E000C990B68E170E0CCD46CE47D
:1015400071E0D0E08C5491401FEFDB0130E020E0EF
:10155000AC01460F571F44535F4FD43009F4B0C05D
:10156000FA01E20FF31FE4911496EC9314972F5FA6
:101570003F4F11962630310581F7DF5F6A5F7F4F5D
:10158000D53019F746E050E06FEF70E08EE691E05D
:10159000E6D480E180934E0180934F0188E88093E8
:1015A0004C018FEF8093750183E080937C018CE286
:1015B00080937E0184E180937F01C43018F081E044
:1015C0008093800188E08093820181E08093830191
:1015D0001092880018D988E380938900C6E310929E
:1015E0008500D0E011E088E8382E0FE78091840173
:1015F00081117EC06FEF8EE62BDAFFEF23EF81E0E3
:10160000F15020408040E1F700C000006FEF82E819
:101610001FDA9FEFE3EFF1E09150E040F040E1F797
:1016200000C000006FEF84E613DA2FEF83EF91E044
:10163000215080409040E1F700C000006BE981E05C
:1016400007DAEFEFF9EF20E0E150F0402040E1F75A
:1016500000C000006FEF8CE3FBD96FEF8CE3F8D98B
:101660004EE150E06FEF70E080E591E078D481E0EA
:101670008093880080917B00893018F48F5F80937D
:101680007B0080918800882301F180E005DAF9CFA2
:1016900080916C00811112CF40E465E570E0F7D9CC
:1016A0007CD962EB70E034D982E0F6D92FEF8BE77A
:1016B00092E9215080409040E1F700C00000FECE4A
:1016C000F901E45BFE4F148F52CF8FEF99E6E8E10A
:1016D00081509040E040E1F700C00000FFEF23EDB3
:1016E00080E3F15020408040E1F700C0000011CFBE
:1016F00080917C0190E0019620918001820F911DE4
:10170000079721F4D11102C01093850080917A00CF
:1017100090917B0029E030E0291B310982171306E4
:1017200011F00CF0C2C08F5F80937A0080E0B4D9D2
:1017300081E090914D01911180E080934D0190E006
:1017400080E0FC01E05BFE4F36E020812B3014F09E
:101750002FEF20832191283024F0DF0111972F5F94
:101760002C93315091F706968831910551F780916D
:101770004F01D0908900ED2CF12C8031E9F060917F
:101780004E0192EF980F923058F46D1548F0970182
:10179000225F3F4F6217130609F014F4109385007F
:1017A0008695863009F0BEC081E049D8882309F4C7
:1017B000B9C080E180934F0180914C01883831F0AD
:1017C00082508D3E0CF4B2C080934C0180917F0119
:1017D0008A51833050F480918001823031F48091BD
:1017E0008101843011F400934C012C2F30E0C701AB
:1017F0000296821793074CF4C9018E199F0963E082
:1018000070E086D3D60ED092890040918900842F53
:1018100090E0BC01625071092617370744F4821B1F
:10182000930B6DEF7FEF74D3460F40938900809147
:101830008500813009F4E3C08091790190918201A3
:10184000891708F076C08F5F8093790180E856D8B9
:10185000845F91408A3F910518F4CC3608F4CA5F42
:101860008A5F9109883C910518F4C63008F0C6508B
:101870002CD8892B79F492E029120CC064E088EC12
:10188000E7D886E080937501809189008A5F809314
:101890007601212C809175018F3F09F0A7CE82E05F
:1018A000281609F4A3CE2394A1CE10927A0019D160
:1018B0006B017C0116D14B015C0180914F0180319D
:1018C00009F034CFC701B60123E030E040E050E03A
:1018D00097D1F62EC501B401A301920191D1262F13
:1018E000663008F025E08F2D90E066E070E0F3D2DE
:1018F000845B9E4FFC01E20FF11D84818F3F09F450
:1019000015CF90917F01995F822F6EE0DBD2890F16
:1019100080934E0180918001F80EFF0CF394F092B9
:101920004F0104CF80914F018F5F44CF30924C0123
:101930004DCF83E080937C0123E0822F90E066E02E
:1019400070E0C9D2FC01E05BFE4F96E081918F3FD1
:1019500021F49150D9F72150F0CF20937C01809150
:10196000780191E0811190E09093780161E0882303
:1019700081F084E66DD880917F0190918301913050
:1019800011F590917E01891730F48E5F80937F016D
:101990000DC088ECEFCF80918101873060F48C5FBF
:1019A000883038F48093810110928301109279017C
:1019B0004DCF87E0F7CF809180018F5F80938001CA
:1019C00010928101F1CF90917D01981710F482500F
:1019D000DDCF80918101873050F48C5F883028F40E
:1019E0008093810110938301E1CF87E0F9CF80914B
:1019F00080018F5F8093800110928101F3CF61E0BD
:101A000080E526D861E084E623D8DF5FDE3108F484
:101A100041CFEFEFFBE42DE1E150F0402040E1F752
:101A200000C0000080917C0190E00196209180012F
:101A3000820F911D079709F4D4CC809186008823EA
:101A400009F4CFCC815080938600C9CD8F929F92AC
:101A5000AF92BF92CF92DF92EF92FF92CF93DF933C
:101A6000EC01688179818A819B816115710581050D
:101A7000910521F464E279ED8BE597E02DE133EFF8
:101A800041E050E0BDD049015A0127EA31E440E08D
:101A900050E09DD06B017C012CEE34EF4FEF5FEFF7
:101AA000C501B40194D0C60ED71EE81EF91EF7FE7C
:101AB00006C081E0C81AD108E10880E8F80AC882A7
:101AC000D982EA82FB82C701B6019F77DF91CF916D
:101AD000FF90EF90DF90CF90BF90AF909F908F904E
:101AE00008958F929F92AF92BF92CF92DF92EF9222
:101AF000FF9260916D0070916E0080916F009091E7
:101B00007000611571058105910521F464E279ED9C
:101B10008BE597E02DE133EF41E050E071D04901D2
:101B20005A0127EA31E440E050E051D06B017C01DA
:101B30002CEE34EF4FEF5FEFC501B40148D0C60E75
:101B4000D71EE81EF91EF7FE06C081E0C81AD108AC
:101B5000E10880E8F80AC0926D00D0926E00E09231
:101B60006F00F0927000C701B6019F77FF90EF9071
:101B7000DF90CF90BF90AF909F908F90089560932B
:101B80006D0070936E0080936F00909370000895C5
:101B9000FB01DC0102C005900D9241505040D8F786
:101BA0000895E199FECF9FBB8EBBE09A99278DB334
:101BB0000895262FE199FECF1CBA9FBB8EBB2DBB8B
:101BC0000FB6F894E29AE19A0FBE01960895EE27B7
:101BD000FF27AA27BB2708C0A20FB31FE41FF51FCA
:101BE000220F331F441F551F96958795779567954C
:101BF00098F37040A9F7009799F7BD01CF010895B8
:101C0000052E97FB16F400940FD057FD05D014D085
:101C100007FC02D046F408C05095409530952195B8
:101C20003F4F4F4F5F4F0895909580957095619508
:101C30007F4F8F4F9F4F0895A1E21A2EAA1BBB1B07
:101C4000FD010DC0AA1FBB1FEE1FFF1FA217B30788
:101C5000E407F50720F0A21BB30BE40BF50B661F9E
:101C6000771F881F991F1A9469F760957095809562
:101C700090959B01AC01BD01CF0108955058BB2741
:101C8000AA270ED0E5C0D6D030F0DBD020F031F45A
:101C90009F3F11F41EF4CBC00EF4E095E7FBC1C0EA
:101CA000E92FE7D080F3BA17620773078407950717
:101CB00018F071F49EF5FFC00EF4E0950B2EBA2FCC
:101CC000A02D0B01B90190010C01CA01A001112442
:101CD000FF27591B99F0593F50F4503E68F11A16EE
:101CE000F040A22F232F342F4427585FF3CF46957F
:101CF00037952795A795F0405395C9F77EF41F16A1
:101D0000BA0B620B730B840BBAF09150A1F0FF0F6A
:101D1000BB1F661F771F881FC2F70EC0BA0F621F56
:101D2000731F841F48F4879577956795B795F79546
:101D30009E3F08F0B3CF9395880F08F09927EE0FD8
:101D400097958795089504D06894B111B5C008950A
:101D500098D088F09F5790F0B92F9927B751A0F0ED
:101D6000D1F0660F771F881F991F1AF0BA95C9F72F
:101D700012C0B13081F09FD0B1E008959CC0672FB0
:101D8000782F8827B85F39F0B93FCCF386957795DF
:101D90006795B395D9F73EF49095809570956195C8
:101DA0007F4F8F4F9F4F0895E89409C097FB3EF4F3
:101DB00090958095709561957F4F8F4F9F4F992398
:101DC000A9F0F92F96E9BB279395F6958795779516
:101DD0006795B795F111F8CFFAF4BB0F11F460FFD6
:101DE0001BC06F5F7F4F8F4F9F4F16C0882311F02E
:101DF00096E911C0772321F09EE8872F762F05C042
:101E0000662371F096E8862F70E060E02AF09A95DC
:101E1000660F771F881FDAF7880F9695879597F9D1
:101E2000089597F99F6780E870E060E008959FEF5C
:101E300080EC089500240A94161617061806090661
:101E4000089500240A941216130614060506089530
:101E5000092E0394000C11F4882352F0BB0F40F4B8
:101E6000BF2B11F460FF04C06F5F7F4F8F4F9F4FF8
:101E7000089557FD9058440F551F59F05F3F71F07A
:101E80004795880F97FB991F61F09F3F79F08795E1
:101E90000895121613061406551FF2CF4695F1DF6A
:101EA00008C0161617061806991FF1CF86957105FA
:101EB000610508940895E894BB2766277727CB012E
:101EC00097F90895002480FD060E660F11F086959F
:101ED000D1F7802D08950024552704C0080E591FFE
:101EE000880F991F009729F076956795B8F37105CB
:101EF000B9F7802D952F0895991B79E004C0991F9B
:101F0000961708F0961B881F7A95C9F78095089553
:101F100097FB072E16F4009406D077FD08D00BD05F
:101F200007FC05D03EF4909581959F4F08957095DC
:101F300061957F4F0895AA1BBB1B51E107C0AA1FE3
:101F4000BB1FA617B70710F0A61BB70B881F991F5A
:101F50005A95A9F780959095BC01CD010895DC01B3
:101F600001C06D9341505040E0F70895F894FFCFC1
:101F70001027E80364000A000100000001010000CE
:021F800000005F
:00000001FF
