:10000000C1C3DBC3DAC3D9C3D8C3D7C3D6C3D5C32F
:10001000D4C3D3C3D2C3D1C3D0C3CFC3CEC30003D1
:100020000C0F30333C3FC0C3CCCFF0F3FCFFAE200D
:1000300000B0C8001040813FA1A6A83FA4D300D5BE
:1000400080D922DA12DB208D14AF454E5445520080
:10005000594F5552004E414D454E45570048495362
:10006000434F5245405B5C5D3C3D3E5B5C5D5E5F8B
:1000700060613A3B0000000047414D45004F564546
:1000800052003C3D3E5E5F60003155500000000074
:10009000000000000000613A3B5B5C5D5E5F603C1D
:1000A0003D3E5B5C5D5E5F60000031300000000043
:1000B00000000000003C3D3E000032300000000027
:1000C00000000000005B5C5D0000343000000000B8
:1000D0000000000000613A3B00003F3F00000000CC
:1000E00000000202020202020404040404040404E4
:1000F00004040404040404040404040200000204CC
:10010000040200000204040404040404FF000000CC
:1001100000FF020202020202040404040404FF04B9
:10012000040404FF00FF0000FF0002FF0202FF02C0
:1001300004FF0404FF0404FF0404FF04FFFF0202A1
:10014000FFFF00020202020002040202040202FF98
:10015000FFFFFF020404040404040202020202027C
:10016000000000000000000000000000FF00000090
:1001700000FF02FFFFFFFF0204FFFFFFFF04FF0479
:10018000040404FF04FF04FF04FFFF04FF04FF0452
:1001900004FF04FF04FFFF04FF04FF04FFFF00004F
:1001A000FFFF020204040202020204040202FFFF33
:1001B0000000FFFF00000404020200000404020229
:1001C0000000040402020000040402020000000017
:1001D00036000202020202020102040810203C2240
:1001E0001E00003E00003A2A2E00222A3E000E0881
:1001F0003C002E2A3A003E28380002320E003E2AE9
:100200003E000E0A3E003C2C2C3C28783020701812
:100210007DB6BC3C3CBCB67D1870022A0E00002E98
:1002200000003C0A3C003E2A14001C2222003E2210
:100230001C003E2A22003E0A02001C2232003E0818
:100240003E00003E000030201E003E0836003E20EA
:1002500020003E0C3E003E1C3E001C221C003E0ABC
:1002600004001C223C003E0A3400242A1200023EF4
:1002700002003E203E001E301E003E183E003608A2
:1002800036000E380E00322A2600000058BC163FF9
:100290003F16BC5800009C9E5E76375F5F37765EE7
:1002A0009E9C203078281C5EFEB6375F5F37B6FE16
:1002B0005E1CF00F00000058BC163F3F16BC5800F3
:1002C0000000000000985CB65F5FB65C980000001C
:1002D0000070187DB6BC3C3CBCB67D187000001E9A
:1002E000B87D363C3C3C3C367DB81E00009C9E5E92
:1002F00076375F5F37765E9E9C00001C5EFEB637E9
:100300005F5F37B6FE5E1C00004060F050785858C2
:100310007850F0604000004060D070587878587095
:10032000D0604000000000000024181824000000E5
:100330000000000000810024181824008100000043
:100340000000248118245A5A2418812400004200F5
:1003500024814A3CA4253C4A812400427078787864
:10036000787E7F7E787878787054D1B4783CF03499
:10037000F88078EAE07480C080000080C0800000CF
:1003800080C08000004C4556454C315550BF01801F
:10039000C082E089F000E081C000E088F081E08B5D
:1003A000F081E088F000E081C000E084F081E001AD
:1003B000C080BDBB02789C1E8B1F003FC6841FDB24
:1003C000853FC6813F043E3C38B060B7BC020102A5
:1003D00006820400FCA483FCC2027F1FFF8404C6C3
:1003E0008407000F8507810F011F7FC500FCA30C48
:1003F00001FF7F3F1F07804020180E0301B8BFA2F6
:1004000002037C80A201037FC2011F03A10107F840
:10041000A30007C1000FC1007FA303807E077FC236
:10042000007EA20080C6007EA304C030180603BF71
:100430000500C0E0F0F8FC86FE00FC85FE02FCF042
:10044000EE89FE00FC81F801FEFF84C0C100E1815D
:10045000C082F800FF84C0C100F0C184C000FF82E8
:10046000F8C283C001FFF8C102DFC7C182C002F831
:10047000F6E187F885FE02FCF0E081F000F881FCEF
:1004800087FE00F881E000C0A208070F79E1C101F2
:10049000030F3FC106F9C383070F1F7FC101F38319
:1004A0008203003FC101FBC3810302070F7FC2002B
:1004B000E183010003C483038301000FC484038329
:1004C000F381030007810FC38303008386F3C20116
:1004D0001F038101008181F181F38303008FC20139
:1004E0007F1F810F0487E3F3F13182010181E780EF
:1004F0007EA30F03071C38E08003071F7FFEF0E098
:10050000800001810701CE80A201073FC109FCF0F4
:10051000C000030F3FFFF880A2003FC3A302FEFC10
:10052000E0A10003C4A3C2000FA300F8C1000FA301
:1005300000C084CFC2023F0701A106809E9F1F0F0B
:1005400061E081F000FCC101EF83828006981E1FEC
:100550001E1FF6E68206010701A01F708070008052
:10056000003820F8030F1C70E081838FBFFEF8E095
:1005700080818F9FFEDC30E0C0839FC005CF1F7C51
:10058000E0C08181838380C1010FFF838000F381FC
:100590001300F08280009FC2828000BC82BF8180F5
:1005A00002C0E07FC10087838000BE83BFC2019F7D
:1005B00083818001F0FEC1078F8180E0F03EFFDF84
:1005C00082870097819F08DFC7E160381C0E030116
:1005D000A5C100FDD000FDCB0B3F5F1FCF2FC7BFD4
:1005E000E77FEFFFBFCE00FBCD00F7CE007FCC0052
:1005F0007FCF00F7C4CD00FEC900FDC510C014E9CF
:10060000F6BDEFFDFFFDFFBFFFD77FDFBFF6CF00D9
:100610007FDFC100BFCB00DFC700BFC4CB00EFD47A
:1006200009FEFFFDF7FFF7FFF7FFFDC100FDDA1B35
:10063000BF7F1FBF0F478F23479343B54BA3DBA556
:10064000DBB3E75BF7AFF76FFFDFFF5FC900BFCE3C
:10065000D400DFCB00EFD400BFCA1F9F0F431502A9
:100660005004A218E20CF20CF3ACDAF5BAED7AEF12
:10067000DABFF6FFEFFDF77FFFEDFF807F08FBBFDE
:10068000FEDF7DF7DFFFBFC200BFCD01FFFED00060
:10069000BFC300AFC300BFDFC31F11240852005502
:1006A00028C31CD1B64DFA57FDD76EFBEE77DFF5A8
:1006B000DFFBFDBFFAFFFDFFFD7F80FE02BFFFDF16
:1006C000C200BFC201FEABC900FDC5CD00FEC10E18
:1006D000F7FFF7FFB6D5F780F7D5B6FFF7FFF7DFDF
:1006E00019FFF648A11449A659A5BA6BDE75FFDBC0
:1006F0007FEDFFF7FFFD7FFFFDFFFEC310DFFBFF78
:10070000BFF7DFFBBF6DDFFFB77FFF57BED5C5006B
:100710007FC700BFC0C600FDCA00FEC301FAEFC21A
:1007200000FED200FDD00FFEE9D46B9679D7BDD77D
:10073000FDEFBDF7DFFFEEC300EFC211FBEEFF7769
:10074000FDFFDFF6EF7DEBFF56BDCBF5F6FDD2C525
:1007500000EFCE00FBD9007FC900EFCA1EFDFEFFEF
:10076000FAF7FDEFF7DEEFFFBFEEFFDFBFFFDFFEC3
:10077000BFFFAFFFDFFBFFF6FFFBFFFCC600FEC5C0
:1007800000FBC90011241FBECFE5D2E0DEBFCDBF04
:1007900010E0A0E6B0E0ECE7FFE102C005900D92AA
:1007A000A237B107D9F721E0A2E7B0E001C01D925E
:1007B000A438B207E1F7CAD5DFCB22CCC298C098E3
:1007C000C29AC09A089530E020E090E0AC01022E79
:1007D00001C0440F0A94EAF747FF0CC0C09AC29ABE
:1007E000C2982F5F3F4F2830310581F7C09AC29AD7
:1007F000C2980895C098F3CFC29AC09AC098C29880
:100800000895CF93C82FF8DF88E7DDDF80E0DBDFD6
:100810008C2FD9DFCF91D2CFE9E4F1E080E0919144
:10082000963008F48F5F91E0E136F907C1F78093C5
:100830007D0186958695869580937B0108951F930B
:10084000CF93DF939DEE960F6C57E5E4F1E0C0E89F
:10085000D0E041E050E0455451409830F0F49E0122
:10086000092E02C0359527950A94E2F7DF01A554B9
:10087000B14072A1172F122381F0AB5BBE4F2095C0
:10088000272392962C93811103C08FEF80936E01E2
:1008900081E0DF91CF911F91089528EF290F283033
:1008A00070F4DE0102C0B595A7952A95E2F79D0187
:1008B000DA01AE0FBF1F73A1172F1223F1F6935267
:1008C00032969613CACF80E0E4CFE9EDF1E084914F
:1008D000E3EDF1E0E491EE2371F0F0E0EE0FFF1FA5
:1008E000E453FE4FA591B491EC91E82381E090E0B0
:1008F00021F480E0089580E090E008958F7787B933
:1009000087B187B9369A3699FECF84B195B10895EB
:1009100090E0A62FB0E0B595A79574E0AA0FBB1F95
:100920007A95E1F79C01E3E035952795EA95E1F7A3
:10093000AF57BF4FA20FB31F2C91222319F1E22F03
:10094000EF77E053FF0BEE0FFF1FEE0FFF1F9595A4
:10095000879583709927E80FF91FE252FE4FE491C3
:1009600060FD09C0EF70F0E0E25EFF4F849127FF69
:100970000AC080950895F0E084E0F595E7958A95A2
:10098000E1F7F2CF80E0089520E630E0F9012E5F34
:100990003F4F4081518184179507C0F3009711F4B0
:1009A000E8E6F0E0DB014191519120E384179507DF
:1009B00020F02F5F841B950BF9CF2D93208131817F
:1009C000232B89F708952091780030917900820FC8
:1009D000931F9093790080937800089580E891E0C8
:1009E0000895EEE7F1E080E09191890F91E0E4381D
:1009F000F907D0F3089580917E0190917F010895C9
:100A000090937F0180937E010895F5DF2091780017
:100A1000309179008217930720F4C901F1DF81E05A
:100A2000089580E00895809178009091790008956C
:100A3000FF920F931F93CF93DF9310928301D1DF27
:100A40009AE2981B909383010EE711E0C0E8D0E092
:100A5000F801F1908F01CE01AAD8F81619F06F2D88
:100A6000CE01ADD82196F1E004381F0788F3DF915D
:100A7000CF911F910F91FF9008950F931F93CF93E4
:100A8000DF93CEE7D1E000E810E0C80190D8899369
:100A90000F5F1F4F81E0C438D807B8F3DF91CF91C3
:100AA0001F910F910895E9DF9CDF8A3271F0109257
:100AB0007F0110927E0143E050E06FE370E080E838
:100AC00091E053DA10928301B3CF08954EE150E0E4
:100AD0006FEF70E089E491E048DAE7E6F1E086E064
:100AE000DF011D928A95E9F7E5E4F1E088E880836B
:100AF0008FEF81A780E18283838388E380938000E6
:100B00000895E1E8F0E080E4DF011D928A95E9F7BD
:100B1000089520E08111C49A982F9095392F315073
:100B200028F045E04A95F1F70000F9CFC4989150BC
:100B300028F035E03A95F1F70000F9CF2F5F621306
:100B4000E9CF08956DE784E6E4DF6DE782E3E1CF66
:100B500050E090E08F579F4F21C82F923F924F92C5
:100B60005F926F927F928F929F92AF92BF92CF923D
:100B7000DF92EF92FF920F931F93CF93DF93782E24
:100B8000A1ED8A2EA5E09A2E882321F0FDE88F2E74
:100B9000F3E09F2E3ADF90914401892B809344012A
:100BA00071102BC0AEDF43E06AE873E080E0D0DF75
:100BB00015DFFC0193E0A7E9B0E001900D929A9552
:100BC000E1F780914401882329F043E06AE873E06B
:100BD00086E1BEDF28DF65E870E0D6DE0CDF6BE97A
:100BE00070E0D2DE45E065E873E084E2B1DF809139
:100BF00043016BEA70E090E0C7DE809180006EE018
:100C000081D9282F80917F00882361F090917E0008
:100C10009C5F9F7790937E00992311F0943411F498
:100C200010927F0080917E008C5C820F8F77809382
:100C30006D01ECEF6E2E312C212CF12C83EC90E029
:100C400040E850E094012F5F3F4FF401649167FF4B
:100C50001FC0762F7076A9F066FB772770F9719523
:100C60006F71C1E0C60FB82FFC017193AE2FAB1BA3
:100C7000AC17D8F370E06F5F7F4F860F971F490165
:100C80001BC0F2E08F0E911CF90174919401E8CF22
:100C9000C1E0C60FF901D82FDC0174917D93319624
:100CA0007A2F7D1B7C17C8F370E06F5F7F4F49017F
:100CB000860E971E860F971F4C1B510909F0C2CF55
:100CC00080EB8F0D9EDD80E09CDD80E19ADD94DD80
:100CD00088E779DD80E477DD10E000E0E02E003881
:100CE000110509F4E9C27110DAC23091C200311164
:100CF00051C1F6E0FF121EC02DEE200F80E028301B
:100D000008F026C1E82FF0E0EB5BFE4F42A180E83F
:100D100090E0022E02C0959587950A94E2F784230D
:100D200049F0213009F438C108F42CC1283008F00A
:100D300029C13FE0E0916D01EE0DEF77F0E0ED535A
:100D4000FF4FD080D09480917D0090E065E070E00E
:100D5000C8D80197A801481B590BCA0118161906D3
:100D60000CF41CC157E0F51219C1F801EA58FC4F08
:100D7000C4912D2D232B80918000F801E81BF109EF
:100D8000ED30F10508F015C177E0F71212C180913E
:100D90007C00811105C1E45AFC4FA491DC2ED22ABB
:100DA00020914501283809F406C1F11004C1022E32
:100DB000000C330B021713070CF4FDC0A8014E50B2
:100DC0005109241735070CF4F6C0F801E21BF30BA8
:100DD0008091460190E06EE070E083D8E80FF91F43
:100DE000E85FFC4FD491DA2AC09078014C2C0C2C8F
:100DF000000C5508041515050CF0DFC0C0E0DD2916
:100E000080916F01E8121BC220916E01822F022E89
:100E1000000C990B2816390609F011C227FD0FC2E4
:100E20009091700181E0911180E0809370019111A7
:100E300003C0215020936E01041515050CF4BDC1AB
:100E400092012C5A3F4F201731070CF4B6C1C090C5
:100E50006E01CC0CDD0890E00196C80ED91EA601EB
:100E6000440F551F440F551F8091790190E09C015C
:100E700073E0220F331F7A95E1F7421753070CF402
:100E80009CC1205E3F4F241735070CF496C1880F94
:100E9000991FC81AD90AB601D7FE02C06F5F7F4FEB
:100EA00075956795072E000C880B990B85D720E068
:100EB00030E040E05FE3BFEFCB16DB060CF462C12D
:100EC000E4D647D7A62E6801C418D508C6016EE03F
:100ED00070E024D8072E000C880B990B6DD720E00A
:100EE00030E040E05FE3E3EFCE16EFEFDE060CF418
:100EF0004BC1CBD62ED7A7FC24C266300CF05DC107
:100F0000F3E0FA150CF459C10A2C000CBB0867FD7C
:100F100060E0C62E660FDD08C50166E070E0E1D72F
:100F20008B5B9E4FFC01EC0DFD1D548025E02515CB
:100F300008F443C16AE082E3ECDD41E0451508F4C2
:100F400025C18AE090E03FDD8AE090E03CDD22C1EF
:100F500048EF420F4830C0F48F5FE82FF0E0EB5BC2
:100F6000FE4F22A180E890E0042E02C0959587955F
:100F70000A94E2F7822309F4DDCE463069F0473067
:100F800009F0D7CE30EFD6CE23528E5F863009F0EF
:100F9000B6CED0CE30E0CECE3CEFCCCEC0E0E9CE67
:100FA0008091460190E06CE070E09BD7E80FF91F5C
:100FB000F2CEA0E0F3CED0E016CF40917901F41646
:100FC00008F41CCFC801841995096EE070E0A6D71B
:100FD0009B01609373018F2D841B80937401663095
:100FE00008F00CCF853008F009CFB0907A01B1102D
:100FF0002EC090E066E070E074D78B5B9E4F280FA8
:10100000391FD90114969C91983074F48091710124
:101010006EE05ED7282F9F3F09F4F0CEEE2DEC193D
:10102000EE3020F0EE50FCCF20E0F8CF892F990F62
:10103000990B6EE070E055D78E0F911D820F911DB8
:1010400027FD9A95FC01EC54FD4FC491D8CE811137
:101050002BC02B5B3E4FF9019481983074F4809142
:1010600071016EE035D7282F9F3F09F4C7CEEE2DD2
:10107000EC19EE3020F0EE50FCCF20E0F8CF892FB5
:10108000990F990B6EE070E02CD78E0F911D820F97
:10109000911D27FD9A95FC01EC54FD4FC49101C0B0
:1010A000CC0FBA94EAF7ABCEA82FB0E0CD010197F0
:1010B00066E070E016D78B5B9E4FFC01E20FF31FDA
:1010C000948198304CF4809171016EE001D7F82F33
:1010D0009F3F19F4C0E023C0F0E0EE2DEC19EE3094
:1010E00010F0EE50FCCF892F990F990B6EE070E055
:1010F000F8D68E0F911D8F0F911DF7FD9A95FC016B
:10110000EC54FD4FE4914E2F50E068E070E06B1915
:10111000710902C0559547956A95E2F7C42FCD0134
:1011200066E070E0DED68B5B9E4F280F391FD90139
:1011300014969C9198304CF4809171016EE0C8D661
:10114000282F9F3F19F4E0E01BC020E0EE2DEC19A2
:10115000EE3010F0EE50FCCF892F990F990B6EE016
:1011600070E0BFD68E0F911D820F911D27FD9A95BD
:10117000FC01EC54FD4FE49101C0EE0FBA94EAF784
:10118000CE2B3DCE81D59DCE7FD5B4CE53E0551527
:1011900008F0DACE8AE090E016DCC50166E070E087
:1011A000A0D68B5B9E4FC80ED91EE8E0D6011496E0
:1011B000EC93FFEFF0936E012FDB80916E018111B4
:1011C00025C020916F0130E080914501082E000C70
:1011D000990B28173907D4F00E9682179307B4F0AD
:1011E000DD24D39461E08D2D94DCD39424E6D212D7
:1011F000F9CF80917D008330F8F48F5F80937D007C
:1012000082E390E0E0DB48E840934501E091700123
:10121000F0E0EE54FD4F9491CD2B80914801282FA2
:1012200026952F110EC020914701E2120AC02FE02F
:1012300080FF08C020EF06C086E990E0E3CF90E091
:10124000EBCF20E0C92BC22BE0E0F11017C0F80172
:10125000F595E795F595E795EF57FF4FE081EE237C
:1012600069F0E053FF0BEE0FFF1FEE0FFF1F8E2DF7
:101270008370E80FF11DE252FE4FE491CE2B809176
:10128000C100882339F051E0561520F06F2D8E2DC6
:101290003FDBC82B8C2F97DA0F5F1F4F1FCD71E0FC
:1012A000771205C0F801ED53FF4FC081F3CF6F2DCA
:1012B000802F2EDBC82FEECF71100CC08091C200A2
:1012C000811108C080916E01863021F460916F0118
:1012D00080E0B5DA73DAF3948FEF281A380A639452
:1012E000A8E0FA12ABCC711019C0209179013091AD
:1012F000750185E090E0831B91092817190674F0A9
:101300008091C200813051F0E7E6F1E086E0DF0134
:101310001D928A95E9F781E08093C200DF91CF9119
:101320001F910F91FF90EF90DF90CF90BF90AF9003
:101330009F908F907F906F905F904F903F902F90F5
:101340000895A12C66300CF4DFCD37CF83E08ABD41
:1013500083BF789480E48CBD8FEF8DBD87EC80BF18
:1013600086B1876886B9379AB89ABA9ACEE2D0E041
:101370000AE410E0FE01849144DA21960C171D075F
:10138000C9F787B3857D87BBBC9A8DDB109244017A
:1013900032E0732E46E0242E312C412C512CB1DB4F
:1013A00080914401882309F454C14CE069E570E060
:1013B00082E0CEDB4FE06AE470E080E2C9DB1BDB59
:1013C00067E970E0E1DA0ADB5C014C01F3E08F0EC3
:1013D000911C21E8C22E20E0D22EEC018C169D0635
:1013E00009F447C083E0F501A8EBB0E001900D924D
:1013F0008A95E1F7688080E881DA845F91407C011A
:1014000083E87CDA8C01045F11402AEFE216F104D4
:1014100018F00A3F110538F463948AE5861510F434
:101420009FE3692E8FDB9AEFE91AF108A8ECEA1620
:10143000F10428F00A5F1109083C110538F46A9498
:10144000BEE3B61510F08AE5682E7CDB6882862D37
:101450008068F60187AB82E080DB37DA892B51F6B2
:1014600071DB33DA892BE9F32196FFEFCF1ADF0A1C
:10147000B5CFDEDA1092440110926C001092790020
:101480001092780083E080937D0010927B0081E0D1
:101490008093430110927F001092C10010927E0051
:1014A00015DB2FDBD0E0C0E08E010F5F1F4F81E026
:1014B000CA3FD10560F0D0E0C0E0043FA1E01A07C8
:1014C00040F447E365EA70E085E042DB82E045DB1B
:1014D000E801FBD9892B41F735DB66246A94F6DAFB
:1014E000C1E0C093C10080E038DB1092C100BFEFC3
:1014F000E3EDF0E3B150E040F040E1F700C0000060
:101500001092C20010927A0088E180937D01E5E498
:10151000F1E088E3DF011D928A95E9F780917B0075
:10152000082E000C990B68E170E0DBD4BC0164521A
:101530007F4F48E150E089E491E030D346E050E04D
:101540006FEF7FEF81E691E010D546E050E06FEF5E
:1015500070E087E691E009D580E1809347018093B0
:10156000480188E88093450160926E0183E0809392
:1015700075018CE28093770184E1809378018091FA
:101580007B00843008F47DC0C093790188E08093AB
:101590007B0181E080937C0110927F003DD988E33C
:1015A00080938000C6E310927C00D0E00FE711E04A
:1015B00080917D01811172C06FEF8EE6AADABFEFD4
:1015C000E3EFF1E0B150E040F040E1F700C000008F
:1015D0006FEF82E89EDA2FEF83EF91E02150804099
:1015E0009040E1F700C000006FEF84E692DAAFEFC1
:1015F000B3EFE1E0A150B040E040E1F700C00000EF
:101600006BE981E086DAFFEF29EF80E0F1502040BE
:101610008040E1F700C000006FEF8CE37ADA6FEFF3
:101620008CE377DA53DA81E080937F008091430185
:101630008F5F8093430180917B00893018F48F5F26
:1016400080937B0080917F008823F1F080E085DA31
:10165000F9CF80916C0081110FCF40E465E670E016
:1016600077DAE1D969EA70E08FD982E076DA2FEF94
:101670008BE792E9215080409040E1F700C00000E4
:10168000FBCE1092790182CF9FEFA9E6B8E191508D
:10169000A040B040E1F700C0000021CF00937601E8
:1016A000E0E8E0937701E9E4F1E08FE720E03191B1
:1016B0009581438594239323318993239F3F29F078
:1016C0008F3719F4822F62EF03D42F5F263079F71A
:1016D00080937601EFE4F1E09CE220E8829136818C
:1016E000832334858323328983238F3F19F0203865
:1016F00009F4292F925F923789F72093770180911F
:10170000750190E0019620917901820F911D079754
:1017100021F4D11102C010937C0080917A00909145
:101720007B0029E030E0291B31098217130611F0F4
:101730000CF0C2C08F5F80937A0080E00EDA81E007
:1017400090914601911180E08093460190E080E005
:10175000FC01E75BFE4F36E020812B3014F02FEFC9
:1017600020832191283024F0DF0111972F5F2C93E3
:10177000315091F706968831910551F780914801D3
:10178000D0908000ED2CF12C8031E9F06091470180
:1017900092EF980F923058F46D1548F09701225F40
:1017A0003F4F6217130609F014F410937C008695DE
:1017B000863009F0BEC081E042D8882309F4B9C060
:1017C00080E18093480180914501883831F0825052
:1017D0008D3E0CF4B2C080934501809178018A510E
:1017E000833050F480917901823031F480917A0114
:1017F000843011F4009345012C2F30E0C70102968C
:10180000821793074CF4C9018E199F0963E070E0B9
:1018100085D3D60ED092800040918000842F90E036
:10182000BC01625071092617370744F4821B930BE1
:101830006DEF7FEF73D3460F4093800080917C0063
:10184000813009F4E2C08091720190917B01891787
:1018500008F075C08F5F8093720180E84FD8845F75
:1018600091408A3F910518F4CC3608F4CA5F8A5F2C
:101870009109883C910518F4C63008F0C65025D867
:10188000892B79F492E079120CC064E088EC41D99C
:1018900086E080936E01809180008A5F80936F0163
:1018A000712C80916E018F3F09F082CEF2E07F169D
:1018B00009F47ECE73947CCE10927A0018D14B013D
:1018C0005C0115D16B017C0180914801803109F0E8
:1018D00034CFC501B40123E030E040E050E096D1C0
:1018E000B62EC701B601A201910190D1262F663014
:1018F00008F025E08B2D90E066E070E0F2D28B5B83
:101900009E4FFC01E20FF11D84818F3F09F415CF3A
:1019100090917801995F822F6EE0DAD2890F8093DF
:10192000470180917901B80EBB0CB394B092480185
:1019300004CF809148018F5F44CF88E84CCF83E08B
:101940008093750123E0822F90E066E070E0C9D2B9
:10195000FC01E75BFE4F96E081918F3F21F49150AF
:10196000D9F72150F0CF209375018091710191E05A
:10197000811190E09093710161E0882381F084E609
:10198000C8D88091780190917C01913011F59091A7
:101990007701891734F48E5F809378010DC088EC4D
:1019A000EFCF80917A01873060F48C5F883038F413
:1019B00080937A0110927C01109272014ECF87E0E1
:1019C000F7CF809179018F5F8093790110927A012E
:1019D000F1CF90917601981714F48250DDCF809169
:1019E0007A01873050F48C5F883028F480937A0134
:1019F00010937C01E1CF87E0F9CF809179018F5F6F
:101A00008093790110927A01F3CF61E080E581D86B
:101A100061E084E67ED8DF5FDE3108F442CFAFEFCD
:101A2000BBE4EDE1A150B040E040E1F700C00000B0
:101A30008091750190E0019620917901820F911DAE
:101A4000079709F4ACCC80917D00882309F4A7CCDA
:101A5000815080937D00A7CD8F929F92AF92BF92CD
:101A6000CF92DF92EF92FF92CF93DF93EC016881E8
:101A700079818A819B81611571058105910521F428
:101A800064E279ED8BE597E02DE133EF41E050E042
:101A9000BDD049015A0127EA31E440E050E09DD031
:101AA0006B017C012CEE34EF4FEF5FEFC501B40109
:101AB00094D0C60ED71EE81EF91EF7FE06C081E0C0
:101AC000C81AD108E10880E8F80AC882D982EA82F7
:101AD000FB82C701B6019F77DF91CF91FF90EF9016
:101AE000DF90CF90BF90AF909F908F9008958F928E
:101AF0009F92AF92BF92CF92DF92EF92FF9260914E
:101B00006D0070916E0080916F0090917000611572
:101B100071058105910521F464E279ED8BE597E08B
:101B20002DE133EF41E050E071D049015A0127EA3D
:101B300031E440E050E051D06B017C012CEE34EFF9
:101B40004FEF5FEFC501B40148D0C60ED71EE81EA7
:101B5000F91EF7FE06C081E0C81AD108E10880E846
:101B6000F80AC0926D00D0926E00E0926F00F09281
:101B70007000C701B6019F77FF90EF90DF90CF9084
:101B8000BF90AF909F908F90089560936D00709379
:101B90006E0080936F00909370000895FB01DC014C
:101BA00002C005900D9241505040D8F70895E19938
:101BB000FECF9FBB8EBBE09A99278DB30895262F49
:101BC000E199FECF1CBA9FBB8EBB2DBB0FB6F8941C
:101BD000E29AE19A0FBE01960895EE27FF27AA2701
:101BE000BB2708C0A20FB31FE41FF51F220F331F2E
:101BF000441F551F969587957795679598F3704084
:101C0000A9F7009799F7BD01CF010895052E97FB1D
:101C100016F400940FD057FD05D014D007FC02D065
:101C200046F408C050954095309521953F4F4F4F51
:101C30005F4F089590958095709561957F4F8F4F78
:101C40009F4F0895A1E21A2EAA1BBB1BFD010DC0D8
:101C5000AA1FBB1FEE1FFF1FA217B307E407F5075C
:101C600020F0A21BB30BE40BF50B661F771F881F38
:101C7000991F1A9469F760957095809590959B01CE
:101C8000AC01BD01CF0108955058BB27AA270ED043
:101C9000E5C0D6D030F0DBD020F031F49F3F11F416
:101CA0001EF4CBC00EF4E095E7FBC1C0E92FE7D0EE
:101CB00080F3BA17620773078407950718F071F469
:101CC0009EF5FFC00EF4E0950B2EBA2FA02D0B0150
:101CD000B90190010C01CA01A0011124FF27591B71
:101CE00099F0593F50F4503E68F11A16F040A22F77
:101CF000232F342F4427585FF3CF469537952795E8
:101D0000A795F0405395C9F77EF41F16BA0B620BE6
:101D1000730B840BBAF09150A1F0FF0FBB1F661F2D
:101D2000771F881FC2F70EC0BA0F621F731F841F70
:101D300048F4879577956795B795F7959E3F08F096
:101D4000B3CF9395880F08F09927EE0F9795879555
:101D5000089504D06894B111B5C0089598D088F062
:101D60009F5790F0B92F9927B751A0F0D1F0660F87
:101D7000771F881F991F1AF0BA95C9F712C0B130A2
:101D800081F09FD0B1E008959CC0672F782F8827FD
:101D9000B85F39F0B93FCCF3869577956795B395E1
:101DA000D9F73EF490958095709561957F4F8F4F50
:101DB0009F4F0895E89409C097FB3EF49095809555
:101DC000709561957F4F8F4F9F4F9923A9F0F92F01
:101DD00096E9BB279395F695879577956795B7957F
:101DE000F111F8CFFAF4BB0F11F460FF1BC06F5F65
:101DF0007F4F8F4F9F4F16C0882311F096E911C077
:101E0000772321F09EE8872F762F05C0662371F097
:101E100096E8862F70E060E02AF09A95660F771FAB
:101E2000881FDAF7880F9695879597F9089597F99F
:101E30009F6780E870E060E008959FEF80EC089570
:101E400000240A9416161706180609060895002499
:101E50000A9412161306140605060895092E039413
:101E6000000C11F4882352F0BB0F40F4BF2B11F487
:101E700060FF04C06F5F7F4F8F4F9F4F089557FDE6
:101E80009058440F551F59F05F3F71F04795880FE8
:101E900097FB991F61F09F3F79F08795089512167F
:101EA00013061406551FF2CF4695F1DF08C016162B
:101EB00017061806991FF1CF8695710561050894DC
:101EC0000895E894BB2766277727CB0197F90895F3
:101ED000002480FD060E660F11F08695D1F7802D47
:101EE00008950024552704C0080E591F880F991F14
:101EF000009729F076956795B8F37105B9F7802DAD
:101F0000952F0895991B79E004C0991F961708F042
:101F1000961B881F7A95C9F78095089597FB072E21
:101F200016F4009406D077FD08D00BD007FC05D03E
:101F30003EF4909581959F4F0895709561957F4FE0
:101F40000895AA1BBB1B51E107C0AA1FBB1FA61700
:101F5000B70710F0A61BB70B881F991F5A95A9F752
:101F600080959095BC01CD010895DC0101C06D9371
:0C1F700041505040E0F70895F894FFCF76
:101F7C001027E80364000A000100000001010000C2
:021F8C00000053
:00000001FF
