:10000000BBC3D5C3D4C3D3C3D2C382C9D0C3CFC3A8
:10001000CEC3CDC3CCC3CBC3CAC3C9C3C8C30003FB
:100020000C0F30333C3FC0C3CCCFF0F3FCFFAE200D
:1000300000B0C8001040813FA1A6A83FA4D300D5BE
:1000400080D922DA12DB208D14AF454E5445520080
:10005000594F5552004E414D454E45570048495362
:10006000434F5245405B5C5D3C3D3E5B5C5D5E5F8B
:1000700060613A3B0000000047414D45004F564546
:1000800052003C3D3E5E5F60003155500000000074
:10009000000000000000613A3B5B5C5D5E5F603C1D
:1000A0003D3E5B5C5D5E5F60000031300000000043
:1000B00000000000003C3D3E000032300000000027
:1000C00000000000005B5C5D0000343000000000B8
:1000D0000000000000613A3B00003F3F00000000CC
:1000E00000000202020202020404040404040404E4
:1000F00004040404040404040404040200000204CC
:10010000040200000204040404040404FF000000CC
:1001100000FF020202020202040404040404FF04B9
:10012000040404FF00FF0000FF0002FF0202FF02C0
:1001300004FF0404FF0404FF0404FF04FFFF0202A1
:10014000FFFF00020202020002040202040202FF98
:10015000FFFFFF020404040404040202020202027C
:10016000000000000000000000000000FF00000090
:1001700000FF02FFFFFFFF0204FFFFFFFF04FF0479
:10018000040404FF04FF04FF04FFFF04FF04FF0452
:1001900004FF04FF04FFFF04FF04FF04FFFF00004F
:1001A000FFFF020204040202020204040202FFFF33
:1001B0000000FFFF00000404020200000404020229
:1001C0000000040402020000040402020000000017
:1001D00036000202020202020102040810203C2240
:1001E0001E00003E00003A2A2E00222A3E000E0881
:1001F0003C002E2A3A003E28380002320E003E2AE9
:100200003E000E0A3E003C2C2C3C28783020701812
:100210007DB6BC3C3CBCB67D1870022A0E00002E98
:1002200000003C0A3C003E2A14001C2222003E2210
:100230001C003E2A22003E0A02001C2232003E0818
:100240003E00003E000030201E003E0836003E20EA
:1002500020003E0C3E003E1C3E001C221C003E0ABC
:1002600004001C223C003E0A3400242A1200023EF4
:1002700002003E203E001E301E003E183E003608A2
:1002800036000E380E00322A2600000058BC163FF9
:100290003F16BC5800009C9E5E76375F5F37765EE7
:1002A0009E9C20307828F00F00000058BC163F3F7D
:1002B00016BC58000000000000985CB65F5FB65C9A
:1002C000980000000070187DB6BC3C3CBCB67D18A0
:1002D0007000001EB87D363C3C3C3C367DB81E00AC
:1002E000009C9E5E76375F5F37765E9E9C00001CAA
:1002F0005EFEB6375F5F37B6FE5E1C00004060F002
:10030000507858587850F0604000004060D07058E5
:1003100078785870D0604000000000000024181861
:1003200024000000000000000081002418182400B0
:10033000810000000000248118245A5A24188124C6
:100340000000420024814A3CA4253C4A812400420A
:1003500070787878787E7F7E787878787054D1B4A9
:10036000783CF034F88078EAE07480C08000008047
:10037000C080000080C08000004C4556454C31557F
:1003800050BF0180C082E089F000E081C000E088B9
:10039000F081E08BF081E088F000E081C000E08433
:1003A000F081E001C080BDBB02789C1E8B1F003F26
:1003B000C6841FDB853FC6813F043E3C38B060B732
:1003C000BC02010206820400FCA483FCC2027F1F5F
:1003D000FF8404C68407000F8507810F011F7FC5B6
:1003E00000FCA30C01FF7F3F1F07804020180E0375
:1003F00001B8BFA202037C80A201037FC2011F03D8
:10040000A10107F8A30007C1000FC1007FA303806B
:100410007E077FC2007EA20080C6007EA304C0309B
:10042000180603BF0500C0E0F0F8FC86FE00FC855E
:10043000FE02FCF0EE89FE00FC81F801FEFF84C0A4
:10044000C100E181C082F800FF84C0C100F0C18416
:10045000C000FF82F8C283C001FFF8C102DFC7C13C
:1004600082C002F8F6E187F885FE02FCF0E081F038
:1004700000F881FC87FE00F881E000C0A208070FA9
:1004800079E1C101030F3FC106F9C383070F1F7F45
:10049000C101F3838203003FC101FBC38103020753
:1004A0000F7FC200E183010003C483038301000FB7
:1004B000C4840383F381030007810FC38303008394
:1004C00086F3C2011F038101008181F181F383035F
:1004D000008FC2017F1F810F0487E3F3F131820196
:1004E0000181E7807EA30F03071C38E08003071F0C
:1004F0007FFEF0E0800001810701CE80A201073F6E
:10050000C109FCF0C000030F3FFFF880A2003FC309
:10051000A302FEFCE0A10003C4A3C2000FA300F8E5
:10052000C1000FA300C084CFC2023F0701A1068013
:100530009E9F1F0F61E081F000FCC101EF8382806C
:1005400006981E1F1E1FF6E68206010701A01F70F7
:1005500080700080003820F8030F1C70E081838FCA
:10056000BFFEF8E080818F9FFEDC30E0C0839FC03B
:1005700005CF1F7CE0C08181838380C1010FFF8391
:100580008000F3811300F08280009FC2828000BC53
:1005900082BF818002C0E07FC10087838000BE836C
:1005A000BFC2019F83818001F0FEC1078F8180E07F
:1005B000F03EFFDF82870097819F08DFC7E1603848
:1005C0001C0E0301A5C100FDD000FDCB0B3F5F1F3A
:1005D000CF2FC7BFE77FEFFFBFCE00FBCD00F7CE29
:1005E000007FCC007FCF00F7C4CD00FEC900FDC561
:1005F00010C014E9F6BDEFFDFFFDFFBFFFD77FDFA1
:10060000BFF6CF007FDFC100BFCB00DFC700BFC494
:10061000CB00EFD409FEFFFDF7FFF7FFF7FFFDC1A9
:1006200000FDDA1BBF7F1FBF0F478F23479343B5E2
:100630004BA3DBA5DBB3E75BF7AFF76FFFDFFF5F34
:10064000C900BFCED400DFCB00EFD400BFCA1F9FCC
:100650000F4315025004A218E20CF20CF3ACDAF5C9
:10066000BAED7AEFDABFF6FFEFFDF77FFFEDFF801F
:100670007F08FBBFFEDF7DF7DFFFBFC200BFCD01FC
:10068000FFFED000BFC300AFC300BFDFC31F1124F4
:100690000852005528C31CD1B64DFA57FDD76EFB42
:1006A000EE77DFF5DFFBFDBFFAFFFDFFFD7F80FE8C
:1006B00002BFFFDFC200BFC201FEABC900FDC5CD56
:1006C00000FEC10EF7FFF7FFB6D5F780F7D5B6FFEE
:1006D000F7FFF7DF19FFF648A11449A659A5BA6B31
:1006E000DE75FFDB7FEDFFF7FFFD7FFFFDFFFEC344
:1006F00010DFFBFFBFF7DFFBBF6DDFFFB77FFF57EB
:10070000BED5C5007FC700BFC0C600FDCA00FEC37E
:1007100001FAEFC200FED200FDD00FFEE9D46B96C5
:1007200079D7BDD7FDEFBDF7DFFFEEC300EFC211F4
:10073000FBEEFF77FDFFDFF6EF7DEBFF56BDCBF560
:10074000F6FDD2C500EFCE00FBD9007FC900EFCA8D
:100750001EFDFEFFFAF7FDEFF7DEEFFFBFEEFFDF56
:10076000BFFFDFFEBFFFAFFFDFFBFFF6FFFBFFFCBE
:10077000C600FEC500FBC90011241FBECFE5D2E0B4
:10078000DEBFCDBF10E0A0E6B0E0ECEBFFE102C0C1
:1007900005900D92A237B107D9F721E0A2E7B0E0AA
:1007A00001C01D92AD38B207E1F7FCD505CC28CCCD
:1007B000C298C098C29AC09A089530E020E090E0B4
:1007C000AC01022E01C0440F0A94EAF747FF0CC0A7
:1007D000C09AC29AC2982F5F3F4F2830310581F7E7
:1007E000C09AC29AC2980895C098F3CFC29AC09A8C
:1007F000C098C2980895CF93C82FF8DF88E7DDDF4F
:1008000080E0DBDF8C2FD9DFCF91D2CF30E020E04A
:1008100080E0F901EE5AFE4F96E041914F3F19F00A
:1008200046300CF48F5F9150C1F72A5F3F4F28315B
:10083000310579F780938601869586958695809314
:10084000840108951F93CF93DF939DEE960F6C570D
:10085000EEE4F1E0C0E8D0E041E050E04E54514019
:100860009830F0F49E01092E02C0359527950A9420
:10087000E2F7DF01AE54B14072A1172F122381F0CD
:10088000A25BBE4F2095272392962C93811103C023
:100890008FEF8093770181E0DF91CF911F910895D1
:1008A00028EF290F283070F4DE0102C0B595A79516
:1008B0002A95E2F79D01DA01AE0FBF1F73A1172F32
:1008C0001223F1F6935232969613CACF80E0E4CF0A
:1008D000E9EDF1E08491E3EDF1E0E491EE2371F0D4
:1008E000F0E0EE0FFF1FE453FE4FA591B491EC91A1
:1008F000E82381E090E021F480E0089580E090E03A
:1009000008958F7787B987B187B9369A3699FECF20
:1009100084B195B1089590E0A62FB0E0B595A79564
:1009200074E0AA0FBB1F7A95E1F79C01E3E03595CF
:100930002795EA95E1F7A657BF4FA20FB31F2C9159
:10094000222319F1E22FEF77E053FF0BEE0FFF1F89
:10095000EE0FFF1F9595879583709927E80FF91F74
:10096000E252FE4FE49160FD09C0EF70F0E0E25EFC
:10097000FF4F849127FF0AC080950895F0E084E03E
:10098000F595E7958A95E1F7F2CF80E0089520E6A6
:1009900030E0F9012E5F3F4F408151818417950768
:1009A000C0F3009711F4E8E6F0E0DB0141915191CA
:1009B00020E38417950720F02F5F841B950BF9CF58
:1009C0002D9320813181232B89F708952091780080
:1009D00030917900820F931F909379008093780073
:1009E000089589E891E00895E7E8F1E080E09191C9
:1009F000890F91E0ED38F907D0F3089580918701D0
:100A000090918801089590938801809387010895BB
:100A1000F5DF20917800309179008217930720F458
:100A2000C901F1DF81E0089580E0089580917800A8
:100A3000909179000895FF920F931F93CF93DF93C6
:100A400010928C01D1DF9AE2981B90938C0107E8F9
:100A500011E0C0E8D0E0F801F1908F01CE01C7D8D5
:100A6000F81619F06F2DCE01CAD82196F1E00D3895
:100A70001F0788F3DF91CF911F910F91FF90089589
:100A80000F931F93CF93DF93C7E8D1E000E810E006
:100A9000C801ADD889930F5F1F4F81E0CD38D807CB
:100AA000B8F3DF91CF911F910F910895E9DF9CDF9B
:100AB0008A3271F0109288011092870143E050E071
:100AC0006FE370E089E891E070DA10928C01B3CFA7
:100AD0000895EAE8F0E080E4DF011D928A95E9F7E5
:100AE000089520E08111C49A982F9095392F3150A4
:100AF00028F045E04A95F1F70000F9CFC4989150ED
:100B000028F035E03A95F1F70000F9CF2F5F621336
:100B1000E9CF08956DE784E6E4DF6DE782E3E1CF96
:100B200050E090E086579F4F59C82F923F924F92C6
:100B30005F926F927F928F929F92AF92BF92CF926D
:100B4000DF92EF92FF920F931F93CF93DF93782E54
:100B5000A5EC8A2EA5E09A2E882321F0F1E88F2EAD
:100B6000F3E09F2E55DF90914D01892B80934D012D
:100B700071102BC0AEDF43E06EE773E080E0D0DFA2
:100B800030DFFC0193E0A0EAB0E001900D929A956D
:100B9000E1F780914D01882329F043E06EE773E08F
:100BA00086E1BEDF43DF6EE870E0F1DE27DF64EA56
:100BB00070E0EDDE45E069E773E084E2B1DF80914B
:100BC0004C0164EB70E090E0E2DE809189006EE021
:100BD000B9D9282F80918800882361F090918700EF
:100BE0009C5F9F7790938700992311F0943411F4C0
:100BF00010928800809187008C5C820F8F778093A1
:100C00007601ECEF6E2E312C212CF12C8CEC90E047
:100C100040E850E094012F5F3F4FF401649167FF7B
:100C20001FC0762F7076A9F066FB772770F9719553
:100C30006F71C1E0C60FB82FFC017193AE2FAB1BD3
:100C4000AC17D8F370E06F5F7F4F860F971F490195
:100C50001BC0F2E08F0E911CF90174919401E8CF52
:100C6000C1E0C60FF901D82FDC0174917D93319654
:100C70007A2F7D1B7C17C8F370E06F5F7F4F4901AF
:100C8000860E971E860F971F4C1B510909F0C2CF85
:100C900080EB8F0DB0DD80E0AEDD80E1ACDDA6DD68
:100CA00088E78BDD80E489DD10E000E0E02E00388D
:100CB000110509F4E3C27110D4C23091CB00311197
:100CC0004CC1F6E0FF121EC02DEE200F80E0283050
:100CD00008F021C1E82FF0E0E25BFE4F42A180E87E
:100CE00090E0022E02C0959587950A94E2F784233E
:100CF00049F0213009F433C108F427C1283008F045
:100D000024C13FE0E0917601EE0DEF77F0E0E4538F
:100D1000FF4F408140958091860090E065E070E053
:100D200000D90197B801681B790BCB011816190679
:100D30000CF417C177E0F71214C1F801E659FC4F23
:100D4000C491242F232B80918900F801E81BF1091D
:100D5000ED30F10508F010C187E0F8120DC1809167
:100D60008500811100C1E05BFC4FA4914C2F422B08
:100D700020914E01283809F401C1F110FFC0022E64
:100D8000000C330B021713070CF4F8C0B8016E50B7
:100D90007109261737070CF4F1C0F801E21BF30BB9
:100DA00080914F0190E06EE070E0BBD8E80FF91F32
:100DB000E450FD4FD4914A2B40908101E41408F097
:100DC000DFC0C0E0D42B80917801E8121AC22091D4
:100DD0007701822F022E000C990B2816390609F094
:100DE00010C227FD0EC29091790181E0911180E03F
:100DF00080937901911103C0215020937701E4146D
:100E000008F4BDC1512C92012C5A3F4F20173107D5
:100E10000CF4B5C1C0907701CC0CDD0890E00196D0
:100E2000C80ED91EA601440F551F440F551F8091AF
:100E3000820190E09C0173E0220F331F7A95E1F765
:100E4000421753070CF49BC1205E3F4F2417350710
:100E50000CF495C1880F991FC81AD90AB601D7FE9C
:100E600002C06F5F7F4F75956795072E000C880B4A
:100E7000990BC2D720E030E040E05FE3AFEFCA1645
:100E8000DA060CF461C121D784D7A62E6801C418F4
:100E9000D508C6016EE070E061D8072E000C880B03
:100EA000990BAAD720E030E040E05FE3B3EFCB1628
:100EB000BFEFDB060CF44AC108D76BD7A7FC23C2EF
:100EC00066300CF05CC1E3E0EA150CF458C10A2C62
:100ED000000CBB0867FD60E0C62E660FDD08C5018B
:100EE00066E070E01ED8825B9E4FFC01EC0DFD1D9C
:100EF0005480F5E0F51508F442C16AE082E3F1DDC3
:100F000021E0251508F424C18AE090E05FDD8AE045
:100F100090E05CDD21C148EF420F4830C0F48F5FA4
:100F2000E82FF0E0E25BFE4F22A180E890E0042E83
:100F300002C0959587950A94E2F7822309F4E2CEE0
:100F4000463069F0473009F0DCCE30EFDBCE23527B
:100F50008E5F863009F0BBCED5CE30E0D3CE3CEFED
:100F6000D1CEC0E0EECE80914F0190E06CE070E019
:100F7000D8D7E80FF91FF7CEA0E0F8CED0E01BCF0E
:100F800020918201F21608F41CCFC801841991093E
:100F90006EE070E0E3D760937C018F2D821B80931D
:100FA0007D01663008F00DCF853008F00ACFB09093
:100FB0008301DB01BB27B1102DC090E066E070E03B
:100FC000B0D7825B9E4FA80FB91F14969C919830A2
:100FD00074F480917A016EE09BD7282F9F3F09F42B
:100FE000F0CEEE2DE419EE3020F0EE50FCCF20E0F4
:100FF000F8CF892F990F990B6EE070E092D7E80F28
:10100000F92FF11DE20FF11D27FDFA95E855FD4F6F
:10101000C491D8CE81112BC0A25BBE4F14969C9177
:10102000983074F480917A016EE072D7282F9F3F38
:1010300009F4C7CEEE2DE419EE3020F0EE50FCCFCF
:1010400020E0F8CF892F990F990B6EE070E069D7F7
:101050008E0F911D820F911D27FD9A95FC01E85579
:10106000FD4FC49101C0CC0FBA94EAF7ABCEC82EA5
:10107000D12CC601019766E070E053D7825B9E4F8A
:10108000FC01EA0FFB1F948198304CF480917A01A7
:101090006EE03ED7382F9F3F19F4C0E023C030E008
:1010A000EE2DE419EE3010F0EE50FCCF892F990FA1
:1010B000990B6EE070E035D78E0F911D830F911D57
:1010C00037FD9A95FC01E855FD4FE4912E2F30E055
:1010D00088E090E08B19910902C0359527958A9593
:1010E000E2F7C22FC60166E070E01BD7825B9E4F1D
:1010F000A80FB91F14969C9198304CF480917A01F6
:101100006EE006D7282F9F3F19F4E0E01BC020E0D7
:10111000EE2DE419EE3010F0EE50FCCF892F990F30
:10112000990B6EE070E0FDD68E0F911D820F911D20
:1011300027FD9A95FC01E855FD4FE49101C0EE0FA3
:10114000BA94EAF7CE2B3ECEBFD59ECEBDD5B5CE56
:1011500063E0651508F0DBCE8AE090E037DCC5017E
:1011600066E070E0DED6825B9E4FC80ED91EE8E0D6
:10117000D6011496EC93FFEFF093770147DB809153
:101180007701811125C02091780130E080914E01D6
:10119000082E000C990B28173907D4F00E968217E9
:1011A0009307B4F0DD24D39461E08D2D9ADCD394C1
:1011B00024E6D212F9CF809186008330F8F48F5F55
:1011C0008093860082E390E001DC68E860934E0142
:1011D000E0917901F0E0EA55FD4F9491CD2B80919B
:1011E0005101282F26952F110EC020915001E21297
:1011F0000AC02FE080FF08C020EF06C086E990E01B
:10120000E3CF90E0EBCF20E0C92BC22BE0E0F11060
:1012100017C0F801F595E795F595E795E657FF4F67
:10122000E081EE2369F0E053FF0BEE0FFF1FEE0F9E
:10123000FF1F8E2D8370E80FF11DE252FE4FE491E7
:10124000CE2B8091CA00882339F071E0761520F00A
:101250006F2D8E2D60DBC82B8C2FAFDA0F5F1F4FE9
:1012600025CD81E0781205C0F801E453FF4FC0811D
:10127000F3CF6F2D802F4FDBC82FEECF71100CC036
:101280008091CB00811108C080917701863021F4D4
:101290006091780180E0D6DA8BDAF394AFEF2A1A06
:1012A0003A0A6394B8E0FB12B1CC711019C02091D6
:1012B000820130917E0185E090E0831B910928171F
:1012C000190674F08091CB00813051F0E0E7F1E035
:1012D00086E0DF011D928A95E9F781E08093CB00DB
:1012E000DF91CF911F910F91FF90EF90DF90CF9002
:1012F000BF90AF909F908F907F906F905F904F9036
:101300003F902F900895A12C66300CF4E0CD37CF9C
:101310001F920F920FB60F9211242F933F938F932A
:101320009F93AF93BF938091810090918200A09191
:101330008300B09184003091800023E0230F2D378B
:1013400068F126E8230F0296A11DB11D20938000AD
:101350008093810090938200A0938300B0938400D7
:1013600080917C0090917D00A0917E00B0917F00E3
:101370000196A11DB11D80937C0090937D00A093E8
:101380007E00B0937F00BF91AF919F918F913F916D
:101390002F910F900FBE0F901F9018950196A11DD1
:1013A000B11DD4CF83E08ABD83BF789489B78260B2
:1013B00089BF80E48CBD8FEF8DBD87EC80BF86B187
:1013C000876886B9379AB89ABA9ACEE2D0E0FE0119
:1013D000849111DA2196F0E0CA34DF07C1F787B3B0
:1013E000857D87BBBC9A62DB10924D0132E0732E83
:1013F00046E0242E312C412C512C6BDB80914D0189
:10140000882309F471C14CE069E570E082E088DB73
:101410004FE06AE470E080E283DBF0DA60EA70E0DB
:10142000B6DADFDA5C014C0123E0820E911C2AE877
:10143000C22E20E0D22EEC018C169D0609F448C085
:1014400083E0F501A1ECB0E001900D928A95E1F7FF
:10145000688080E856DA845F91407C0183E851DA45
:101460008C01045F11408AEFE816F10418F00A3F7E
:10147000110538F463949AE5961510F49FE3692EEC
:1014800049DBAAEFEA1AF108B8ECEB16F10428F0F0
:101490000A5F1109083C110538F46A94EEE3E61579
:1014A00010F08AE5682E36DB6882862D8068D601CA
:1014B000D7968C9382E039DB0BDA892B49F62ADB4D
:1014C00007DA892BE9F32196BFEFCB1ADB0AB4CFF9
:1014D000B2DA10924D0110926C00109279001092C5
:1014E000780083E08093860010927B0081E08093F7
:1014F0004C01109288001092CA0010928700E9DA1D
:10150000D0E0C0E08E010F5F1F4F81E0CA3FD105E0
:1015100060F0D0E0C0E0043F81E0180740F447E30A
:1015200065EA70E085E0FCDA82E0FFDAE801D0D914
:10153000892B41F7EFDA0FEF66246A944EE150E011
:101540006FEF70E082E591E030D588E880934E013E
:101550006092770181E08093CA0080E0E6DA109221
:10156000CA009FEFA3EDB0E39150A040B040E1F777
:1015700000C000001092CB0010927A0088E18093A6
:101580008601EEE4F1E088E3DF011D928A95E9F738
:10159000C0917B008C2F0C2E000C990B68E170E041
:1015A000C0D4BF01D0E08E549140DB0130E020E098
:1015B000AC01460F571F44525F4FD43009F4ACC002
:1015C000FA01E20FF31FE4911496EC9314972F5F46
:1015D0003F4F11962630310581F7DF5F6A5F7F4FFD
:1015E000D53019F746E050E06FEF70E080E791E00A
:1015F000DCD480E1809350018093510183E080939B
:101600007E018CE28093800184E180938101C4306B
:1016100018F081E08093820188E08093840181E06A
:101620008093850110928800F1D888E38093890027
:10163000C6E310928500D0E011E08091860181110F
:101640007AC06FEF8EE64DDABFEFE3EFF1E0B15015
:10165000E040F040E1F700C000006FEF82E841DABF
:101660002FEF83EF91E0215080409040E1F700C0E0
:1016700000006FEF84E635DAAFEFB3EFE1E0A150A1
:10168000B040E040E1F700C000006BE981E029DAFA
:10169000FFEF29EF80E0F15020408040E1F700C0EB
:1016A00000006FEF8CE31DDA6FEF8CE31ADA4EE186
:1016B00050E06FEF70E082E591E077D481E08093B5
:1016C000880080914C018F5F80934C0180917B005A
:1016D000893018F48F5F80937B0080918800882385
:1016E00001F180E022DAF9CF80916C008111F3CE14
:1016F00040E465E670E014DA99D962EB70E047D90E
:1017000082E013DAEFEFFBE722E9E150F0402040FE
:10171000E1F700C00000DFCEF901E25BFE4F048F6D
:1017200056CF9FEFA9E6B8E19150A040B040E1F755
:1017300000C0000003CF80917E0190E001962091CF
:101740008201820F911D079721F4D11102C01093DD
:10175000850080917A0090917B0029E030E0291B80
:1017600031098217130611F00CF0C2C08F5F80930D
:101770007A0080E0DAD981E090914F01911180E008
:1017800080934F0190E080E0FC01EE5AFE4F36E07E
:1017900020812B300CF000832191283024F0DF01D0
:1017A00011972F5F2C93315099F706968831910548
:1017B00059F780915101D0908900ED2CF12C8031A6
:1017C000E9F06091500192EF980F923058F46D1546
:1017D00048F09701225F3F4F6217130609F014F497
:1017E000109385008695863009F0BFC081E02AD825
:1017F000882309F4BAC0E0E1E093510180914E01E1
:10180000883831F082508D3E0CF4B5C080934E0183
:10181000809181018A51833058F480918201823015
:1018200039F480918301843019F42FE720934E011D
:101830002C2F30E0C7010296821793074CF4C901A0
:101840008E199F0963E070E089D3D60ED09289008B
:1018500040918900842F90E0BC01625071092617E5
:10186000370744F4821B930B6DEF7FEF77D3460F5E
:101870004093890080918500813009F4E6C0809111
:101880007B0190918401891708F079C08F5F809364
:101890007B0180E836D8845F91408A3F910518F437
:1018A000CC3608F4CA5F8A5F9109883C910518F428
:1018B000C63008F0C6500CD8892B79F482E0781233
:1018C0000CC064E088EC0DD986E0809377018091AC
:1018D00089008A5F80937801712C809177018F3F16
:1018E00009F0ABCEE2E07E1609F4A7CE7394A5CE44
:1018F00010927A001CD14B015C0119D16B017C0163
:1019000080915101803109F034CFC501B40123E049
:1019100030E040E050E09AD1B62EC701B601A201F6
:10192000910194D1262F663008F025E08B2D90E0B0
:1019300066E070E0F6D2825B9E4FFC01E20FF11D83
:1019400084818F3F09F415CF90918101995F822F97
:101950006EE0DED2890F8093500180918201B80E33
:10196000BB0CB394B092510104CF809151018F5FB1
:101970008093510143CFF8E8F0934E0149CF83E0C3
:1019800080937E0123E0822F90E066E070E0C9D270
:10199000FC01EE5AFE4F96E081918F3F21F4915069
:1019A000D9F72150F0CF20937E0180917A0191E008
:1019B000811190E090937A0161E0882381F084E6C0
:1019C00090D88091810190918501913011F590918D
:1019D0008001891730F48E5F809381010DC088ECFF
:1019E000EFCF80918301873060F48C5F883038F4CA
:1019F000809383011092850110927B014ACF87E08A
:101A0000F7CF809182018F5F8093820110928301D2
:101A1000F1CF90917F01981710F48250DDCF809123
:101A20008301873050F48C5F883028F480938301E1
:101A300010938501E1CF87E0F9CF809182018F5F1C
:101A40008093820110928301F3CF61E080E549D851
:101A500061E084E646D8DF5FDE3108F43ECF9FEFD9
:101A6000ABE4BDE19150A040B040E1F700C0000000
:101A700080917E0190E0019620918201820F911D5C
:101A8000079709F4BACC80918600882309F4B5CC75
:101A9000815080938600CDCD8F929F92AF92BF925E
:101AA000CF92DF92EF92FF92CF93DF93EC016881A8
:101AB00079818A819B81611571058105910521F4E8
:101AC00064E279ED8BE597E02DE133EF41E050E002
:101AD000BDD049015A0127EA31E440E050E09DD0F1
:101AE0006B017C012CEE34EF4FEF5FEFC501B401C9
:101AF00094D0C60ED71EE81EF91EF7FE06C081E080
:101B0000C81AD108E10880E8F80AC882D982EA82B6
:101B1000FB82C701B6019F77DF91CF91FF90EF90D5
:101B2000DF90CF90BF90AF909F908F9008958F924D
:101B30009F92AF92BF92CF92DF92EF92FF9260910D
:101B40006D0070916E0080916F0090917000611532
:101B500071058105910521F464E279ED8BE597E04B
:101B60002DE133EF41E050E071D049015A0127EAFD
:101B700031E440E050E051D06B017C012CEE34EFB9
:101B80004FEF5FEFC501B40148D0C60ED71EE81E67
:101B9000F91EF7FE06C081E0C81AD108E10880E806
:101BA000F80AC0926D00D0926E00E0926F00F09241
:101BB0007000C701B6019F77FF90EF90DF90CF9044
:101BC000BF90AF909F908F90089560936D00709339
:101BD0006E0080936F00909370000895FB01DC010C
:101BE00002C005900D9241505040D8F70895E199F8
:101BF000FECF9FBB8EBBE09A99278DB30895262F09
:101C0000E199FECF1CBA9FBB8EBB2DBB0FB6F894DB
:101C1000E29AE19A0FBE01960895EE27FF27AA27C0
:101C2000BB2708C0A20FB31FE41FF51F220F331FED
:101C3000441F551F969587957795679598F3704043
:101C4000A9F7009799F7BD01CF010895052E97FBDD
:101C500016F400940FD057FD05D014D007FC02D025
:101C600046F408C050954095309521953F4F4F4F11
:101C70005F4F089590958095709561957F4F8F4F38
:101C80009F4F0895A1E21A2EAA1BBB1BFD010DC098
:101C9000AA1FBB1FEE1FFF1FA217B307E407F5071C
:101CA00020F0A21BB30BE40BF50B661F771F881FF8
:101CB000991F1A9469F760957095809590959B018E
:101CC000AC01BD01CF0108955058BB27AA270ED003
:101CD000E5C0D6D030F0DBD020F031F49F3F11F4D6
:101CE0001EF4CBC00EF4E095E7FBC1C0E92FE7D0AE
:101CF00080F3BA17620773078407950718F071F429
:101D00009EF5FFC00EF4E0950B2EBA2FA02D0B010F
:101D1000B90190010C01CA01A0011124FF27591B30
:101D200099F0593F50F4503E68F11A16F040A22F36
:101D3000232F342F4427585FF3CF469537952795A7
:101D4000A795F0405395C9F77EF41F16BA0B620BA6
:101D5000730B840BBAF09150A1F0FF0FBB1F661FED
:101D6000771F881FC2F70EC0BA0F621F731F841F30
:101D700048F4879577956795B795F7959E3F08F056
:101D8000B3CF9395880F08F09927EE0F9795879515
:101D9000089504D06894B111B5C0089598D088F022
:101DA0009F5790F0B92F9927B751A0F0D1F0660F47
:101DB000771F881F991F1AF0BA95C9F712C0B13062
:101DC00081F09FD0B1E008959CC0672F782F8827BD
:101DD000B85F39F0B93FCCF3869577956795B395A1
:101DE000D9F73EF490958095709561957F4F8F4F10
:101DF0009F4F0895E89409C097FB3EF49095809515
:101E0000709561957F4F8F4F9F4F9923A9F0F92FC0
:101E100096E9BB279395F695879577956795B7953E
:101E2000F111F8CFFAF4BB0F11F460FF1BC06F5F24
:101E30007F4F8F4F9F4F16C0882311F096E911C036
:101E4000772321F09EE8872F762F05C0662371F057
:101E500096E8862F70E060E02AF09A95660F771F6B
:101E6000881FDAF7880F9695879597F9089597F95F
:101E70009F6780E870E060E008959FEF80EC089530
:101E800000240A9416161706180609060895002459
:101E90000A9412161306140605060895092E0394D3
:101EA000000C11F4882352F0BB0F40F4BF2B11F447
:101EB00060FF04C06F5F7F4F8F4F9F4F089557FDA6
:101EC0009058440F551F59F05F3F71F04795880FA8
:101ED00097FB991F61F09F3F79F08795089512163F
:101EE00013061406551FF2CF4695F1DF08C01616EB
:101EF00017061806991FF1CF86957105610508949C
:101F00000895E894BB2766277727CB0197F90895B2
:101F1000002480FD060E660F11F08695D1F7802D06
:101F200008950024552704C0080E591F880F991FD3
:101F3000009729F076956795B8F37105B9F7802D6C
:101F4000952F0895991B79E004C0991F961708F002
:101F5000961B881F7A95C9F78095089597FB072EE1
:101F600016F4009406D077FD08D00BD007FC05D0FE
:101F70003EF4909581959F4F0895709561957F4FA0
:101F80000895AA1BBB1B51E107C0AA1FBB1FA617C0
:101F9000B70710F0A61BB70B881F991F5A95A9F712
:101FA00080959095BC01CD010895DC0101C06D9331
:0C1FB00041505040E0F70895F894FFCF36
:101FBC001027E80364000A00010000000101000082
:021FCC00000013
:00000001FF
